{
  "_format": "hh-sol-artifact-1",
  "contractName": "MyArtNft",
  "sourceName": "contracts/MyArtNft.sol",
  "abi": [
    {
      "inputs": [],
      "stateMutability": "nonpayable",
      "type": "constructor"
    },
    {
      "anonymous": false,
      "inputs": [
        {
          "indexed": true,
          "internalType": "address",
          "name": "owner",
          "type": "address"
        },
        {
          "indexed": true,
          "internalType": "address",
          "name": "approved",
          "type": "address"
        },
        {
          "indexed": true,
          "internalType": "uint256",
          "name": "tokenId",
          "type": "uint256"
        }
      ],
      "name": "Approval",
      "type": "event"
    },
    {
      "anonymous": false,
      "inputs": [
        {
          "indexed": true,
          "internalType": "address",
          "name": "owner",
          "type": "address"
        },
        {
          "indexed": true,
          "internalType": "address",
          "name": "operator",
          "type": "address"
        },
        {
          "indexed": false,
          "internalType": "bool",
          "name": "approved",
          "type": "bool"
        }
      ],
      "name": "ApprovalForAll",
      "type": "event"
    },
    {
      "anonymous": false,
      "inputs": [
        {
          "indexed": false,
          "internalType": "uint256",
          "name": "value",
          "type": "uint256"
        }
      ],
      "name": "MintPriceChanged",
      "type": "event"
    },
    {
      "anonymous": false,
      "inputs": [
        {
          "indexed": false,
          "internalType": "uint256",
          "name": "value",
          "type": "uint256"
        }
      ],
      "name": "PresaleMintPriceChanged",
      "type": "event"
    },
    {
      "anonymous": false,
      "inputs": [
        {
          "indexed": true,
          "internalType": "address",
          "name": "from",
          "type": "address"
        },
        {
          "indexed": true,
          "internalType": "address",
          "name": "to",
          "type": "address"
        },
        {
          "indexed": true,
          "internalType": "uint256",
          "name": "tokenId",
          "type": "uint256"
        }
      ],
      "name": "Transfer",
      "type": "event"
    },
    {
      "inputs": [],
      "name": "MAX_PRESALE",
      "outputs": [
        {
          "internalType": "uint256",
          "name": "",
          "type": "uint256"
        }
      ],
      "stateMutability": "view",
      "type": "function"
    },
    {
      "inputs": [],
      "name": "MAX_TOKENS",
      "outputs": [
        {
          "internalType": "uint256",
          "name": "",
          "type": "uint256"
        }
      ],
      "stateMutability": "view",
      "type": "function"
    },
    {
      "inputs": [
        {
          "internalType": "address",
          "name": "to",
          "type": "address"
        },
        {
          "internalType": "uint256",
          "name": "tokenId",
          "type": "uint256"
        }
      ],
      "name": "approve",
      "outputs": [],
      "stateMutability": "nonpayable",
      "type": "function"
    },
    {
      "inputs": [
        {
          "internalType": "address",
          "name": "owner",
          "type": "address"
        }
      ],
      "name": "balanceOf",
      "outputs": [
        {
          "internalType": "uint256",
          "name": "",
          "type": "uint256"
        }
      ],
      "stateMutability": "view",
      "type": "function"
    },
    {
      "inputs": [],
      "name": "baseURI",
      "outputs": [
        {
          "internalType": "string",
          "name": "",
          "type": "string"
        }
      ],
      "stateMutability": "view",
      "type": "function"
    },
    {
      "inputs": [
        {
          "internalType": "uint256",
          "name": "value",
          "type": "uint256"
        }
      ],
      "name": "changeMintPrice",
      "outputs": [],
      "stateMutability": "nonpayable",
      "type": "function"
    },
    {
      "inputs": [
        {
          "internalType": "uint256",
          "name": "value",
          "type": "uint256"
        }
      ],
      "name": "changePresaleMintPrice",
      "outputs": [],
      "stateMutability": "nonpayable",
      "type": "function"
    },
    {
      "inputs": [
        {
          "internalType": "uint256",
          "name": "tokenId",
          "type": "uint256"
        }
      ],
      "name": "getApproved",
      "outputs": [
        {
          "internalType": "address",
          "name": "",
          "type": "address"
        }
      ],
      "stateMutability": "view",
      "type": "function"
    },
    {
      "inputs": [],
      "name": "getBalance",
      "outputs": [
        {
          "internalType": "uint256",
          "name": "",
          "type": "uint256"
        }
      ],
      "stateMutability": "view",
      "type": "function"
    },
    {
      "inputs": [
        {
          "internalType": "address",
          "name": "owner",
          "type": "address"
        },
        {
          "internalType": "address",
          "name": "operator",
          "type": "address"
        }
      ],
      "name": "isApprovedForAll",
      "outputs": [
        {
          "internalType": "bool",
          "name": "",
          "type": "bool"
        }
      ],
      "stateMutability": "view",
      "type": "function"
    },
    {
      "inputs": [],
      "name": "maxMint",
      "outputs": [
        {
          "internalType": "uint256",
          "name": "",
          "type": "uint256"
        }
      ],
      "stateMutability": "view",
      "type": "function"
    },
    {
      "inputs": [
        {
          "internalType": "uint256",
          "name": "numberOfTokens",
          "type": "uint256"
        },
        {
          "internalType": "address",
          "name": "recipient",
          "type": "address"
        },
        {
          "internalType": "string",
          "name": "tokenUri",
          "type": "string"
        }
      ],
      "name": "mint",
      "outputs": [
        {
          "internalType": "uint256",
          "name": "",
          "type": "uint256"
        }
      ],
      "stateMutability": "payable",
      "type": "function"
    },
    {
      "inputs": [],
      "name": "mintPrice",
      "outputs": [
        {
          "internalType": "uint256",
          "name": "",
          "type": "uint256"
        }
      ],
      "stateMutability": "view",
      "type": "function"
    },
    {
      "inputs": [],
      "name": "name",
      "outputs": [
        {
          "internalType": "string",
          "name": "",
          "type": "string"
        }
      ],
      "stateMutability": "view",
      "type": "function"
    },
    {
      "inputs": [
        {
          "internalType": "uint256",
          "name": "tokenId",
          "type": "uint256"
        }
      ],
      "name": "ownerOf",
      "outputs": [
        {
          "internalType": "address",
          "name": "",
          "type": "address"
        }
      ],
      "stateMutability": "view",
      "type": "function"
    },
    {
      "inputs": [],
      "name": "presaleIsActive",
      "outputs": [
        {
          "internalType": "bool",
          "name": "",
          "type": "bool"
        }
      ],
      "stateMutability": "view",
      "type": "function"
    },
    {
      "inputs": [],
      "name": "presale_mintPrice",
      "outputs": [
        {
          "internalType": "uint256",
          "name": "",
          "type": "uint256"
        }
      ],
      "stateMutability": "view",
      "type": "function"
    },
    {
      "inputs": [
        {
          "internalType": "address",
          "name": "from",
          "type": "address"
        },
        {
          "internalType": "address",
          "name": "to",
          "type": "address"
        },
        {
          "internalType": "uint256",
          "name": "tokenId",
          "type": "uint256"
        }
      ],
      "name": "safeTransferFrom",
      "outputs": [],
      "stateMutability": "nonpayable",
      "type": "function"
    },
    {
      "inputs": [
        {
          "internalType": "address",
          "name": "from",
          "type": "address"
        },
        {
          "internalType": "address",
          "name": "to",
          "type": "address"
        },
        {
          "internalType": "uint256",
          "name": "tokenId",
          "type": "uint256"
        },
        {
          "internalType": "bytes",
          "name": "_data",
          "type": "bytes"
        }
      ],
      "name": "safeTransferFrom",
      "outputs": [],
      "stateMutability": "nonpayable",
      "type": "function"
    },
    {
      "inputs": [],
      "name": "saleIsActive",
      "outputs": [
        {
          "internalType": "bool",
          "name": "",
          "type": "bool"
        }
      ],
      "stateMutability": "view",
      "type": "function"
    },
    {
      "inputs": [
        {
          "internalType": "address",
          "name": "operator",
          "type": "address"
        },
        {
          "internalType": "bool",
          "name": "approved",
          "type": "bool"
        }
      ],
      "name": "setApprovalForAll",
      "outputs": [],
      "stateMutability": "nonpayable",
      "type": "function"
    },
    {
      "inputs": [
        {
          "internalType": "bytes4",
          "name": "interfaceId",
          "type": "bytes4"
        }
      ],
      "name": "supportsInterface",
      "outputs": [
        {
          "internalType": "bool",
          "name": "",
          "type": "bool"
        }
      ],
      "stateMutability": "view",
      "type": "function"
    },
    {
      "inputs": [],
      "name": "symbol",
      "outputs": [
        {
          "internalType": "string",
          "name": "",
          "type": "string"
        }
      ],
      "stateMutability": "view",
      "type": "function"
    },
    {
      "inputs": [],
      "name": "togglePresaleState",
      "outputs": [],
      "stateMutability": "nonpayable",
      "type": "function"
    },
    {
      "inputs": [],
      "name": "toggleSaleState",
      "outputs": [],
      "stateMutability": "nonpayable",
      "type": "function"
    },
    {
      "inputs": [
        {
          "internalType": "uint256",
          "name": "index",
          "type": "uint256"
        }
      ],
      "name": "tokenByIndex",
      "outputs": [
        {
          "internalType": "uint256",
          "name": "",
          "type": "uint256"
        }
      ],
      "stateMutability": "view",
      "type": "function"
    },
    {
      "inputs": [
        {
          "internalType": "address",
          "name": "owner",
          "type": "address"
        },
        {
          "internalType": "uint256",
          "name": "index",
          "type": "uint256"
        }
      ],
      "name": "tokenOfOwnerByIndex",
      "outputs": [
        {
          "internalType": "uint256",
          "name": "",
          "type": "uint256"
        }
      ],
      "stateMutability": "view",
      "type": "function"
    },
    {
      "inputs": [
        {
          "internalType": "uint256",
          "name": "tokenId",
          "type": "uint256"
        }
      ],
      "name": "tokenURI",
      "outputs": [
        {
          "internalType": "string",
          "name": "",
          "type": "string"
        }
      ],
      "stateMutability": "view",
      "type": "function"
    },
    {
      "inputs": [
        {
          "internalType": "uint256",
          "name": "",
          "type": "uint256"
        }
      ],
      "name": "tokenURIsMinted",
      "outputs": [
        {
          "internalType": "string",
          "name": "",
          "type": "string"
        }
      ],
      "stateMutability": "view",
      "type": "function"
    },
    {
      "inputs": [],
      "name": "totalSupply",
      "outputs": [
        {
          "internalType": "uint256",
          "name": "",
          "type": "uint256"
        }
      ],
      "stateMutability": "view",
      "type": "function"
    },
    {
      "inputs": [
        {
          "internalType": "address",
          "name": "from",
          "type": "address"
        },
        {
          "internalType": "address",
          "name": "to",
          "type": "address"
        },
        {
          "internalType": "uint256",
          "name": "tokenId",
          "type": "uint256"
        }
      ],
      "name": "transferFrom",
      "outputs": [],
      "stateMutability": "nonpayable",
      "type": "function"
    },
    {
      "inputs": [
        {
          "internalType": "address payable",
          "name": "_to",
          "type": "address"
        }
      ],
      "name": "withdrawMoneyTo",
      "outputs": [],
      "stateMutability": "nonpayable",
      "type": "function"
    }
  ],
  "bytecode": "0x608060405273be8d4707b4d9b7a87de9bac74a9fa583ca04bfc1600a60006101000a81548173ffffffffffffffffffffffffffffffffffffffff021916908373ffffffffffffffffffffffffffffffffffffffff160217905550662386f26fc10000600e55666a94d74f430000600f5561012c60105560326011556001601260006101000a81548160ff0219169083151502179055506001601260016101000a81548160ff021916908315150217905550348015620000bd57600080fd5b506040518060400160405280600881526020017f4d794172744e46540000000000000000000000000000000000000000000000008152506040518060400160405280600881526020017f4d594152544e4654000000000000000000000000000000000000000000000000815250620001426301ffc9a760e01b620001ee60201b60201c565b81600690805190602001906200015a92919062000313565b5080600790805190602001906200017392919062000313565b506200018c6380ac58cd60e01b620001ee60201b60201c565b620001a4635b5e139f60e01b620001ee60201b60201c565b620001bc63780e9d6360e01b620001ee60201b60201c565b5050620001e8604051806080016040528060518152602001620040b660519139620002f760201b60201c565b620003b9565b63ffffffff60e01b817bffffffffffffffffffffffffffffffffffffffffffffffffffffffff191614156200028b576040517f08c379a000000000000000000000000000000000000000000000000000000000815260040180806020018281038252601c8152602001807f4552433136353a20696e76616c696420696e746572666163652069640000000081525060200191505060405180910390fd5b6001600080837bffffffffffffffffffffffffffffffffffffffffffffffffffffffff19167bffffffffffffffffffffffffffffffffffffffffffffffffffffffff1916815260200190815260200160002060006101000a81548160ff02191690831515021790555050565b80600990805190602001906200030f92919062000313565b5050565b828054600181600116156101000203166002900490600052602060002090601f016020900481019282601f106200035657805160ff191683800117855562000387565b8280016001018555821562000387579182015b828111156200038657825182559160200191906001019062000369565b5b5090506200039691906200039a565b5090565b5b80821115620003b55760008160009055506001016200039b565b5090565b613ced80620003c96000396000f3fe6080604052600436106101e35760003560e01c80636817c76c11610102578063c87b56dd11610095578063eb8d244411610064578063eb8d244414610d6f578063edd6ac8414610d9c578063f285e69e14610dd7578063f47c84c514610dee576101e3565b8063c87b56dd14610b24578063daaeec8614610bd8578063e67e402c14610bef578063e985e9c514610ce8576101e3565b80637f247dd5116100d15780637f247dd51461087157806395d89b4114610925578063a22cb465146109b5578063b88d4fde14610a12576101e3565b80636817c76c146107265780636c0360eb1461075157806370a08231146107e15780637501f74114610846576101e3565b80632f745c591161017a57806342842e0e1161014957806342842e0e146105cc5780634d4c4e99146106475780634f6ccce7146106725780636352211e146106c1576101e3565b80632f745c59146104ca57806330f72cd4146105395780633ba343e6146105665780633fd1736614610591576101e3565b80630ff8d8a5116101b65780630ff8d8a5146103a857806312065fe0146103f957806318160ddd1461042457806323b872dd1461044f576101e3565b806301ffc9a7146101e857806306fdde0314610258578063081812fc146102e8578063095ea7b31461034d575b600080fd5b3480156101f457600080fd5b506102406004803603602081101561020b57600080fd5b8101908080357bffffffffffffffffffffffffffffffffffffffffffffffffffffffff19169060200190929190505050610e19565b60405180821515815260200191505060405180910390f35b34801561026457600080fd5b5061026d610e80565b6040518080602001828103825283818151815260200191508051906020019080838360005b838110156102ad578082015181840152602081019050610292565b50505050905090810190601f1680156102da5780820380516001836020036101000a031916815260200191505b509250505060405180910390f35b3480156102f457600080fd5b506103216004803603602081101561030b57600080fd5b8101908080359060200190929190505050610f22565b604051808273ffffffffffffffffffffffffffffffffffffffff16815260200191505060405180910390f35b34801561035957600080fd5b506103a66004803603604081101561037057600080fd5b81019080803573ffffffffffffffffffffffffffffffffffffffff16906020019092919080359060200190929190505050610fbd565b005b3480156103b457600080fd5b506103f7600480360360208110156103cb57600080fd5b81019080803573ffffffffffffffffffffffffffffffffffffffff169060200190929190505050611101565b005b34801561040557600080fd5b5061040e611152565b6040518082815260200191505060405180910390f35b34801561043057600080fd5b5061043961115a565b6040518082815260200191505060405180910390f35b34801561045b57600080fd5b506104c86004803603606081101561047257600080fd5b81019080803573ffffffffffffffffffffffffffffffffffffffff169060200190929190803573ffffffffffffffffffffffffffffffffffffffff1690602001909291908035906020019092919050505061116b565b005b3480156104d657600080fd5b50610523600480360360408110156104ed57600080fd5b81019080803573ffffffffffffffffffffffffffffffffffffffff169060200190929190803590602001909291905050506111e1565b6040518082815260200191505060405180910390f35b34801561054557600080fd5b5061054e61123c565b60405180821515815260200191505060405180910390f35b34801561057257600080fd5b5061057b61124f565b6040518082815260200191505060405180910390f35b34801561059d57600080fd5b506105ca600480360360208110156105b457600080fd5b8101908080359060200190929190505050611255565b005b3480156105d857600080fd5b50610645600480360360608110156105ef57600080fd5b81019080803573ffffffffffffffffffffffffffffffffffffffff169060200190929190803573ffffffffffffffffffffffffffffffffffffffff16906020019092919080359060200190929190505050611359565b005b34801561065357600080fd5b5061065c611379565b6040518082815260200191505060405180910390f35b34801561067e57600080fd5b506106ab6004803603602081101561069557600080fd5b810190808035906020019092919050505061137f565b6040518082815260200191505060405180910390f35b3480156106cd57600080fd5b506106fa600480360360208110156106e457600080fd5b81019080803590602001909291905050506113a2565b604051808273ffffffffffffffffffffffffffffffffffffffff16815260200191505060405180910390f35b34801561073257600080fd5b5061073b6113d9565b6040518082815260200191505060405180910390f35b34801561075d57600080fd5b506107666113df565b6040518080602001828103825283818151815260200191508051906020019080838360005b838110156107a657808201518184015260208101905061078b565b50505050905090810190601f1680156107d35780820380516001836020036101000a031916815260200191505b509250505060405180910390f35b3480156107ed57600080fd5b506108306004803603602081101561080457600080fd5b81019080803573ffffffffffffffffffffffffffffffffffffffff169060200190929190505050611481565b6040518082815260200191505060405180910390f35b34801561085257600080fd5b5061085b611556565b6040518082815260200191505060405180910390f35b34801561087d57600080fd5b506108aa6004803603602081101561089457600080fd5b810190808035906020019092919050505061155b565b6040518080602001828103825283818151815260200191508051906020019080838360005b838110156108ea5780820151818401526020810190506108cf565b50505050905090810190601f1680156109175780820380516001836020036101000a031916815260200191505b509250505060405180910390f35b34801561093157600080fd5b5061093a611614565b6040518080602001828103825283818151815260200191508051906020019080838360005b8381101561097a57808201518184015260208101905061095f565b50505050905090810190601f1680156109a75780820380516001836020036101000a031916815260200191505b509250505060405180910390f35b3480156109c157600080fd5b50610a10600480360360408110156109d857600080fd5b81019080803573ffffffffffffffffffffffffffffffffffffffff1690602001909291908035151590602001909291905050506116b6565b005b348015610a1e57600080fd5b50610b2260048036036080811015610a3557600080fd5b81019080803573ffffffffffffffffffffffffffffffffffffffff169060200190929190803573ffffffffffffffffffffffffffffffffffffffff1690602001909291908035906020019092919080359060200190640100000000811115610a9c57600080fd5b820183602082011115610aae57600080fd5b80359060200191846001830284011164010000000083111715610ad057600080fd5b91908080601f016020809104026020016040519081016040528093929190818152602001838380828437600081840152601f19601f82011690508083019250505050505050919291929050505061186c565b005b348015610b3057600080fd5b50610b5d60048036036020811015610b4757600080fd5b81019080803590602001909291905050506118e4565b6040518080602001828103825283818151815260200191508051906020019080838360005b83811015610b9d578082015181840152602081019050610b82565b50505050905090810190601f168015610bca5780820380516001836020036101000a031916815260200191505b509250505060405180910390f35b348015610be457600080fd5b50610bed611bcd565b005b610cd260048036036060811015610c0557600080fd5b8101908080359060200190929190803573ffffffffffffffffffffffffffffffffffffffff16906020019092919080359060200190640100000000811115610c4c57600080fd5b820183602082011115610c5e57600080fd5b80359060200191846001830284011164010000000083111715610c8057600080fd5b91908080601f016020809104026020016040519081016040528093929190818152602001838380828437600081840152601f19601f820116905080830192505050505050509192919290505050611cbc565b6040518082815260200191505060405180910390f35b348015610cf457600080fd5b50610d5760048036036040811015610d0b57600080fd5b81019080803573ffffffffffffffffffffffffffffffffffffffff169060200190929190803573ffffffffffffffffffffffffffffffffffffffff169060200190929190505050612379565b60405180821515815260200191505060405180910390f35b348015610d7b57600080fd5b50610d8461240d565b60405180821515815260200191505060405180910390f35b348015610da857600080fd5b50610dd560048036036020811015610dbf57600080fd5b8101908080359060200190929190505050612420565b005b348015610de357600080fd5b50610dec612524565b005b348015610dfa57600080fd5b50610e03612550565b6040518082815260200191505060405180910390f35b6000806000837bffffffffffffffffffffffffffffffffffffffffffffffffffffffff19167bffffffffffffffffffffffffffffffffffffffffffffffffffffffff1916815260200190815260200160002060009054906101000a900460ff169050919050565b606060068054600181600116156101000203166002900480601f016020809104026020016040519081016040528092919081815260200182805460018160011615610100020316600290048015610f185780601f10610eed57610100808354040283529160200191610f18565b820191906000526020600020905b815481529060010190602001808311610efb57829003601f168201915b5050505050905090565b6000610f2d82612556565b610f82576040517f08c379a000000000000000000000000000000000000000000000000000000000815260040180806020018281038252602c815260200180613bb6602c913960400191505060405180910390fd5b6004600083815260200190815260200160002060009054906101000a900473ffffffffffffffffffffffffffffffffffffffff169050919050565b6000610fc8826113a2565b90508073ffffffffffffffffffffffffffffffffffffffff168373ffffffffffffffffffffffffffffffffffffffff16141561104f576040517f08c379a0000000000000000000000000000000000000000000000000000000008152600401808060200182810382526021815260200180613c666021913960400191505060405180910390fd5b8073ffffffffffffffffffffffffffffffffffffffff1661106e612573565b73ffffffffffffffffffffffffffffffffffffffff16148061109d575061109c81611097612573565b612379565b5b6110f2576040517f08c379a0000000000000000000000000000000000000000000000000000000008152600401808060200182810382526038815260200180613ac76038913960400191505060405180910390fd5b6110fc838361257b565b505050565b8073ffffffffffffffffffffffffffffffffffffffff166108fc611123611152565b9081150290604051600060405180830381858888f1935050505015801561114e573d6000803e3d6000fd5b5050565b600047905090565b60006111666002612634565b905090565b61117c611176612573565b82612649565b6111d1576040517f08c379a0000000000000000000000000000000000000000000000000000000008152600401808060200182810382526031815260200180613c876031913960400191505060405180910390fd5b6111dc83838361273d565b505050565b600061123482600160008673ffffffffffffffffffffffffffffffffffffffff1673ffffffffffffffffffffffffffffffffffffffff16815260200190815260200160002061298090919063ffffffff16565b905092915050565b601260019054906101000a900460ff1681565b600e5481565b600a60009054906101000a900473ffffffffffffffffffffffffffffffffffffffff1673ffffffffffffffffffffffffffffffffffffffff163373ffffffffffffffffffffffffffffffffffffffff1614611318576040517f08c379a00000000000000000000000000000000000000000000000000000000081526004018080602001828103825260108152602001807f596f75277265206e6f742061646d696e0000000000000000000000000000000081525060200191505060405180910390fd5b80600f819055507f25b1f9f6b6e61dfca5575239769e4450ed2e49176670837f5d1a82a9a2fc693f816040518082815260200191505060405180910390a150565b6113748383836040518060200160405280600081525061186c565b505050565b60115481565b60008061139683600261299a90919063ffffffff16565b50905080915050919050565b60006113d282604051806060016040528060298152602001613b296029913960026129c69092919063ffffffff16565b9050919050565b600f5481565b606060098054600181600116156101000203166002900480601f0160208091040260200160405190810160405280929190818152602001828054600181600116156101000203166002900480156114775780601f1061144c57610100808354040283529160200191611477565b820191906000526020600020905b81548152906001019060200180831161145a57829003601f168201915b5050505050905090565b60008073ffffffffffffffffffffffffffffffffffffffff168273ffffffffffffffffffffffffffffffffffffffff161415611508576040517f08c379a000000000000000000000000000000000000000000000000000000000815260040180806020018281038252602a815260200180613aff602a913960400191505060405180910390fd5b61154f600160008473ffffffffffffffffffffffffffffffffffffffff1673ffffffffffffffffffffffffffffffffffffffff1681526020019081526020016000206129e5565b9050919050565b600381565b600c818154811061156857fe5b906000526020600020016000915090508054600181600116156101000203166002900480601f01602080910402602001604051908101604052809291908181526020018280546001816001161561010002031660029004801561160c5780601f106115e15761010080835404028352916020019161160c565b820191906000526020600020905b8154815290600101906020018083116115ef57829003601f168201915b505050505081565b606060078054600181600116156101000203166002900480601f0160208091040260200160405190810160405280929190818152602001828054600181600116156101000203166002900480156116ac5780601f10611681576101008083540402835291602001916116ac565b820191906000526020600020905b81548152906001019060200180831161168f57829003601f168201915b5050505050905090565b6116be612573565b73ffffffffffffffffffffffffffffffffffffffff168273ffffffffffffffffffffffffffffffffffffffff16141561175f576040517f08c379a00000000000000000000000000000000000000000000000000000000081526004018080602001828103825260198152602001807f4552433732313a20617070726f766520746f2063616c6c65720000000000000081525060200191505060405180910390fd5b806005600061176c612573565b73ffffffffffffffffffffffffffffffffffffffff1673ffffffffffffffffffffffffffffffffffffffff16815260200190815260200160002060008473ffffffffffffffffffffffffffffffffffffffff1673ffffffffffffffffffffffffffffffffffffffff16815260200190815260200160002060006101000a81548160ff0219169083151502179055508173ffffffffffffffffffffffffffffffffffffffff16611819612573565b73ffffffffffffffffffffffffffffffffffffffff167f17307eab39ab6107e8899845ad3d59bd9653f200f220920489ca2b5937696c318360405180821515815260200191505060405180910390a35050565b61187d611877612573565b83612649565b6118d2576040517f08c379a0000000000000000000000000000000000000000000000000000000008152600401808060200182810382526031815260200180613c876031913960400191505060405180910390fd5b6118de848484846129fa565b50505050565b60606118ef82612556565b611944576040517f08c379a000000000000000000000000000000000000000000000000000000000815260040180806020018281038252602f815260200180613c37602f913960400191505060405180910390fd5b6060600860008481526020019081526020016000208054600181600116156101000203166002900480601f0160208091040260200160405190810160405280929190818152602001828054600181600116156101000203166002900480156119ed5780601f106119c2576101008083540402835291602001916119ed565b820191906000526020600020905b8154815290600101906020018083116119d057829003601f168201915b50505050509050600060098054600181600116156101000203166002900490501415611a1c5780915050611bc8565b600081511115611af5576009816040516020018083805460018160011615610100020316600290048015611a875780601f10611a65576101008083540402835291820191611a87565b820191906000526020600020905b815481529060010190602001808311611a73575b505082805190602001908083835b60208310611ab85780518252602082019150602081019050602083039250611a95565b6001836020036101000a03801982511681845116808217855250505050505090500192505050604051602081830303815290604052915050611bc8565b6009611b0084612a6c565b6040516020018083805460018160011615610100020316600290048015611b5e5780601f10611b3c576101008083540402835291820191611b5e565b820191906000526020600020905b815481529060010190602001808311611b4a575b505082805190602001908083835b60208310611b8f5780518252602082019150602081019050602083039250611b6c565b6001836020036101000a038019825116818451168082178552505050505050905001925050506040516020818303038152906040529150505b919050565b600a60009054906101000a900473ffffffffffffffffffffffffffffffffffffffff1673ffffffffffffffffffffffffffffffffffffffff163373ffffffffffffffffffffffffffffffffffffffff1614611c90576040517f08c379a00000000000000000000000000000000000000000000000000000000081526004018080602001828103825260108152602001807f596f75277265206e6f742061646d696e0000000000000000000000000000000081525060200191505060405180910390fd5b601260009054906101000a900460ff1615601260006101000a81548160ff021916908315150217905550565b6000601260009054906101000a900460ff16611d23576040517f08c379a0000000000000000000000000000000000000000000000000000000008152600401808060200182810382526021815260200180613a566021913960400191505060405180910390fd5b600d826040518082805190602001908083835b60208310611d595780518252602082019150602081019050602083039250611d36565b6001836020036101000a038019825116818451168082178552505050505050905001915050908152602001604051809103902060009054906101000a900460ff1615611e0d576040517f08c379a000000000000000000000000000000000000000000000000000000000815260040180806020018281038252601a8152602001807f54686973206e6674206973206d696e74656420616c726561647900000000000081525060200191505060405180910390fd5b6000841415611e67576040517f08c379a0000000000000000000000000000000000000000000000000000000008152600401808060200182810382526021815260200180613b526021913960400191505060405180910390fd5b601154611e7261115a565b10611ff1576003841115611ed1576040517f08c379a0000000000000000000000000000000000000000000000000000000008152600401808060200182810382526024815260200180613a0d6024913960400191505060405180910390fd5b601054611eee85611ee061115a565b612bb390919063ffffffff16565b1115611f62576040517f08c379a00000000000000000000000000000000000000000000000000000000081526004018080602001828103825260208152602001807f4d696e74696e6720776f756c6420657863656564206d61782e20737570706c7981525060200191505060405180910390fd5b34611f7885600f54612c3b90919063ffffffff16565b1115611fec576040517f08c379a00000000000000000000000000000000000000000000000000000000081526004018080602001828103825260168152602001807f4e6f7420656e6f7567682045746865722073656e742e0000000000000000000081525060200191505060405180910390fd5b612167565b600284111561204b576040517f08c379a0000000000000000000000000000000000000000000000000000000008152600401808060200182810382526025815260200180613a316025913960400191505060405180910390fd5b6011546120688561205a61115a565b612bb390919063ffffffff16565b11156120dc576040517f08c379a000000000000000000000000000000000000000000000000000000000815260040180806020018281038252600c8152602001807f50726573616c652066756c6c000000000000000000000000000000000000000081525060200191505060405180910390fd5b346120f285600e54612c3b90919063ffffffff16565b1115612166576040517f08c379a00000000000000000000000000000000000000000000000000000000081526004018080602001828103825260198152602001807f4e6f7420656e6f7567682045746865722073656e742e2076320000000000000081525060200191505060405180910390fd5b5b60005b8481101561237157600061217c61115a565b9050600061218a600b612cc1565b9050601054821015612362576121a08682612ccf565b6121aa8186612ec3565b6121b4600b612f4d565b600c6121be6113df565b866040516020018083805190602001908083835b602083106121f557805182526020820191506020810190506020830392506121d2565b6001836020036101000a03801982511681845116808217855250505050505090500182805190602001908083835b602083106122465780518252602082019150602081019050602083039250612223565b6001836020036101000a038019825116818451168082178552505050505050905001925050506040516020818303038152906040529080600181540180825580915050600190039060005260206000200160009091909190915090805190602001906122b392919061391b565b506001600d866040518082805190602001908083835b602083106122ec57805182526020820191506020810190506020830392506122c9565b6001836020036101000a038019825116818451168082178552505050505050905001915050908152602001604051809103902060006101000a81548160ff021916908315150217905550612361600a60009054906101000a900473ffffffffffffffffffffffffffffffffffffffff16611101565b5b5050808060010191505061216a565b509392505050565b6000600560008473ffffffffffffffffffffffffffffffffffffffff1673ffffffffffffffffffffffffffffffffffffffff16815260200190815260200160002060008373ffffffffffffffffffffffffffffffffffffffff1673ffffffffffffffffffffffffffffffffffffffff16815260200190815260200160002060009054906101000a900460ff16905092915050565b601260009054906101000a900460ff1681565b600a60009054906101000a900473ffffffffffffffffffffffffffffffffffffffff1673ffffffffffffffffffffffffffffffffffffffff163373ffffffffffffffffffffffffffffffffffffffff16146124e3576040517f08c379a00000000000000000000000000000000000000000000000000000000081526004018080602001828103825260108152602001807f596f75277265206e6f742061646d696e0000000000000000000000000000000081525060200191505060405180910390fd5b80600e819055507f8166f2c0362b67a450bc64dcbcaba82e31cce596748382bdd0e0cca2b29d9784816040518082815260200191505060405180910390a150565b601260019054906101000a900460ff1615601260016101000a81548160ff021916908315150217905550565b60105481565b600061256c826002612f6390919063ffffffff16565b9050919050565b600033905090565b816004600083815260200190815260200160002060006101000a81548173ffffffffffffffffffffffffffffffffffffffff021916908373ffffffffffffffffffffffffffffffffffffffff160217905550808273ffffffffffffffffffffffffffffffffffffffff166125ee836113a2565b73ffffffffffffffffffffffffffffffffffffffff167f8c5be1e5ebec7d5bd14f71427d1e84f3dd0314c0f7b2291e5b200ac8c7c3b92560405160405180910390a45050565b600061264282600001612f7d565b9050919050565b600061265482612556565b6126a9576040517f08c379a000000000000000000000000000000000000000000000000000000000815260040180806020018281038252602c815260200180613a9b602c913960400191505060405180910390fd5b60006126b4836113a2565b90508073ffffffffffffffffffffffffffffffffffffffff168473ffffffffffffffffffffffffffffffffffffffff16148061272357508373ffffffffffffffffffffffffffffffffffffffff1661270b84610f22565b73ffffffffffffffffffffffffffffffffffffffff16145b8061273457506127338185612379565b5b91505092915050565b8273ffffffffffffffffffffffffffffffffffffffff1661275d826113a2565b73ffffffffffffffffffffffffffffffffffffffff16146127c9576040517f08c379a0000000000000000000000000000000000000000000000000000000008152600401808060200182810382526029815260200180613c0e6029913960400191505060405180910390fd5b600073ffffffffffffffffffffffffffffffffffffffff168273ffffffffffffffffffffffffffffffffffffffff16141561284f576040517f08c379a0000000000000000000000000000000000000000000000000000000008152600401808060200182810382526024815260200180613a776024913960400191505060405180910390fd5b61285a838383612f8e565b61286560008261257b565b6128b681600160008673ffffffffffffffffffffffffffffffffffffffff1673ffffffffffffffffffffffffffffffffffffffff168152602001908152602001600020612f9390919063ffffffff16565b5061290881600160008573ffffffffffffffffffffffffffffffffffffffff1673ffffffffffffffffffffffffffffffffffffffff168152602001908152602001600020612fad90919063ffffffff16565b5061291f81836002612fc79092919063ffffffff16565b50808273ffffffffffffffffffffffffffffffffffffffff168473ffffffffffffffffffffffffffffffffffffffff167fddf252ad1be2c89b69c2b068fc378daa952ba7f163c4a11628f55a4df523b3ef60405160405180910390a4505050565b600061298f8360000183612ffc565b60001c905092915050565b6000806000806129ad866000018661307f565b915091508160001c8160001c9350935050509250929050565b60006129d9846000018460001b84613118565b60001c90509392505050565b60006129f38260000161320e565b9050919050565b612a0584848461273d565b612a118484848461321f565b612a66576040517f08c379a00000000000000000000000000000000000000000000000000000000081526004018080602001828103825260328152602001806139db6032913960400191505060405180910390fd5b50505050565b60606000821415612ab4576040518060400160405280600181526020017f30000000000000000000000000000000000000000000000000000000000000008152509050612bae565b600082905060005b60008214612ade578080600101915050600a8281612ad657fe5b049150612abc565b60608167ffffffffffffffff81118015612af757600080fd5b506040519080825280601f01601f191660200182016040528015612b2a5781602001600182028036833780820191505090505b50905060006001830390508593505b60008414612ba657600a8481612b4b57fe5b0660300160f81b82828060019003935081518110612b6557fe5b60200101907effffffffffffffffffffffffffffffffffffffffffffffffffffffffffffff1916908160001a905350600a8481612b9e57fe5b049350612b39565b819450505050505b919050565b600080828401905083811015612c31576040517f08c379a000000000000000000000000000000000000000000000000000000000815260040180806020018281038252601b8152602001807f536166654d6174683a206164646974696f6e206f766572666c6f77000000000081525060200191505060405180910390fd5b8091505092915050565b600080831415612c4e5760009050612cbb565b6000828402905082848281612c5f57fe5b0414612cb6576040517f08c379a0000000000000000000000000000000000000000000000000000000008152600401808060200182810382526021815260200180613b956021913960400191505060405180910390fd5b809150505b92915050565b600081600001549050919050565b600073ffffffffffffffffffffffffffffffffffffffff168273ffffffffffffffffffffffffffffffffffffffff161415612d72576040517f08c379a00000000000000000000000000000000000000000000000000000000081526004018080602001828103825260208152602001807f4552433732313a206d696e7420746f20746865207a65726f206164647265737381525060200191505060405180910390fd5b612d7b81612556565b15612dee576040517f08c379a000000000000000000000000000000000000000000000000000000000815260040180806020018281038252601c8152602001807f4552433732313a20746f6b656e20616c7265616479206d696e7465640000000081525060200191505060405180910390fd5b612dfa60008383612f8e565b612e4b81600160008573ffffffffffffffffffffffffffffffffffffffff1673ffffffffffffffffffffffffffffffffffffffff168152602001908152602001600020612fad90919063ffffffff16565b50612e6281836002612fc79092919063ffffffff16565b50808273ffffffffffffffffffffffffffffffffffffffff16600073ffffffffffffffffffffffffffffffffffffffff167fddf252ad1be2c89b69c2b068fc378daa952ba7f163c4a11628f55a4df523b3ef60405160405180910390a45050565b612ecc82612556565b612f21576040517f08c379a000000000000000000000000000000000000000000000000000000000815260040180806020018281038252602c815260200180613be2602c913960400191505060405180910390fd5b80600860008481526020019081526020016000209080519060200190612f4892919061391b565b505050565b6001816000016000828254019250508190555050565b6000612f75836000018360001b613438565b905092915050565b600081600001805490509050919050565b505050565b6000612fa5836000018360001b61345b565b905092915050565b6000612fbf836000018360001b613543565b905092915050565b6000612ff3846000018460001b8473ffffffffffffffffffffffffffffffffffffffff1660001b6135b3565b90509392505050565b60008183600001805490501161305d576040517f08c379a00000000000000000000000000000000000000000000000000000000081526004018080602001828103825260228152602001806139b96022913960400191505060405180910390fd5b82600001828154811061306c57fe5b9060005260206000200154905092915050565b600080828460000180549050116130e1576040517f08c379a0000000000000000000000000000000000000000000000000000000008152600401808060200182810382526022815260200180613b736022913960400191505060405180910390fd5b60008460000184815481106130f257fe5b906000526020600020906002020190508060000154816001015492509250509250929050565b600080846001016000858152602001908152602001600020549050600081141583906131df576040517f08c379a00000000000000000000000000000000000000000000000000000000081526004018080602001828103825283818151815260200191508051906020019080838360005b838110156131a4578082015181840152602081019050613189565b50505050905090810190601f1680156131d15780820380516001836020036101000a031916815260200191505b509250505060405180910390fd5b508460000160018203815481106131f257fe5b9060005260206000209060020201600101549150509392505050565b600081600001805490509050919050565b60006132408473ffffffffffffffffffffffffffffffffffffffff1661368f565b61324d5760019050613430565b60606133b763150b7a0260e01b613262612573565b888787604051602401808573ffffffffffffffffffffffffffffffffffffffff1681526020018473ffffffffffffffffffffffffffffffffffffffff16815260200183815260200180602001828103825283818151815260200191508051906020019080838360005b838110156132e65780820151818401526020810190506132cb565b50505050905090810190601f1680156133135780820380516001836020036101000a031916815260200191505b5095505050505050604051602081830303815290604052907bffffffffffffffffffffffffffffffffffffffffffffffffffffffff19166020820180517bffffffffffffffffffffffffffffffffffffffffffffffffffffffff83818316178352505050506040518060600160405280603281526020016139db603291398773ffffffffffffffffffffffffffffffffffffffff166136da9092919063ffffffff16565b905060008180602001905160208110156133d057600080fd5b8101908080519060200190929190505050905063150b7a0260e01b7bffffffffffffffffffffffffffffffffffffffffffffffffffffffff1916817bffffffffffffffffffffffffffffffffffffffffffffffffffffffff191614925050505b949350505050565b600080836001016000848152602001908152602001600020541415905092915050565b6000808360010160008481526020019081526020016000205490506000811461353757600060018203905060006001866000018054905003905060008660000182815481106134a657fe5b90600052602060002001549050808760000184815481106134c357fe5b90600052602060002001819055506001830187600101600083815260200190815260200160002081905550866000018054806134fb57fe5b6001900381819060005260206000200160009055905586600101600087815260200190815260200160002060009055600194505050505061353d565b60009150505b92915050565b600061354f83836136f2565b6135a85782600001829080600181540180825580915050600190039060005260206000200160009091909190915055826000018054905083600101600084815260200190815260200160002081905550600190506135ad565b600090505b92915050565b600080846001016000858152602001908152602001600020549050600081141561365a57846000016040518060400160405280868152602001858152509080600181540180825580915050600190039060005260206000209060020201600090919091909150600082015181600001556020820151816001015550508460000180549050856001016000868152602001908152602001600020819055506001915050613688565b8285600001600183038154811061366d57fe5b90600052602060002090600202016001018190555060009150505b9392505050565b60008060007fc5d2460186f7233c927e7db2dcc703c0e500b653ca82273b7bfad8045d85a47060001b9050833f91508082141580156136d157506000801b8214155b92505050919050565b60606136e98484600085613715565b90509392505050565b600080836001016000848152602001908152602001600020541415905092915050565b60606137208561368f565b613792576040517f08c379a000000000000000000000000000000000000000000000000000000000815260040180806020018281038252601d8152602001807f416464726573733a2063616c6c20746f206e6f6e2d636f6e747261637400000081525060200191505060405180910390fd5b600060608673ffffffffffffffffffffffffffffffffffffffff1685876040518082805190602001908083835b602083106137e257805182526020820191506020810190506020830392506137bf565b6001836020036101000a03801982511681845116808217855250505050505090500191505060006040518083038185875af1925050503d8060008114613844576040519150601f19603f3d011682016040523d82523d6000602084013e613849565b606091505b5091509150811561385e578092505050613913565b6000815111156138715780518082602001fd5b836040517f08c379a00000000000000000000000000000000000000000000000000000000081526004018080602001828103825283818151815260200191508051906020019080838360005b838110156138d85780820151818401526020810190506138bd565b50505050905090810190601f1680156139055780820380516001836020036101000a031916815260200191505b509250505060405180910390fd5b949350505050565b828054600181600116156101000203166002900490600052602060002090601f016020900481019282601f1061395c57805160ff191683800117855561398a565b8280016001018555821561398a579182015b8281111561398957825182559160200191906001019061396e565b5b509050613997919061399b565b5090565b5b808211156139b457600081600090555060010161399c565b509056fe456e756d657261626c655365743a20696e646578206f7574206f6620626f756e64734552433732313a207472616e7366657220746f206e6f6e20455243373231526563656976657220696d706c656d656e746572596f752063616e206f6e6c79206d696e74203320746f6b656e7320617420612074696d65596f752063616e206f6e6c79206d696e74203220746f6b656e7320696e2070726573616c6553616c65206d7573742062652061637469766520746f206d696e7420546f6b656e4552433732313a207472616e7366657220746f20746865207a65726f20616464726573734552433732313a206f70657261746f7220717565727920666f72206e6f6e6578697374656e7420746f6b656e4552433732313a20617070726f76652063616c6c6572206973206e6f74206f776e6572206e6f7220617070726f76656420666f7220616c6c4552433732313a2062616c616e636520717565727920666f7220746865207a65726f20616464726573734552433732313a206f776e657220717565727920666f72206e6f6e6578697374656e7420746f6b656e596f75206e65656420746f206d696e74206174206c65617374203120746f6b656e456e756d657261626c654d61703a20696e646578206f7574206f6620626f756e6473536166654d6174683a206d756c7469706c69636174696f6e206f766572666c6f774552433732313a20617070726f76656420717565727920666f72206e6f6e6578697374656e7420746f6b656e4552433732314d657461646174613a2055524920736574206f66206e6f6e6578697374656e7420746f6b656e4552433732313a207472616e73666572206f6620746f6b656e2074686174206973206e6f74206f776e4552433732314d657461646174613a2055524920717565727920666f72206e6f6e6578697374656e7420746f6b656e4552433732313a20617070726f76616c20746f2063757272656e74206f776e65724552433732313a207472616e736665722063616c6c6572206973206e6f74206f776e6572206e6f7220617070726f766564a2646970667358221220cad94ca6d415ae06bd4b8fcca08516814e2f91c11cd1b2907e61f4dba95a452564736f6c6343000703003368747470733a2f2f676174657761792e70696e6174612e636c6f75642f697066732f516d584469547577447772776a723546565466614d727a55715839563564564658694e6d693473434346586e55532f",
  "linkReferences": {},
  "deployedLinkReferences": {}
}