{
  "_format": "hh-sol-artifact-1",
  "contractName": "DogNftDemo",
  "sourceName": "contracts/DogNftDemo.sol",
  "abi": [
    {
      "inputs": [],
      "stateMutability": "nonpayable",
      "type": "constructor"
    },
    {
      "anonymous": false,
      "inputs": [
        {
          "indexed": true,
          "internalType": "address",
          "name": "owner",
          "type": "address"
        },
        {
          "indexed": true,
          "internalType": "address",
          "name": "approved",
          "type": "address"
        },
        {
          "indexed": true,
          "internalType": "uint256",
          "name": "tokenId",
          "type": "uint256"
        }
      ],
      "name": "Approval",
      "type": "event"
    },
    {
      "anonymous": false,
      "inputs": [
        {
          "indexed": true,
          "internalType": "address",
          "name": "owner",
          "type": "address"
        },
        {
          "indexed": true,
          "internalType": "address",
          "name": "operator",
          "type": "address"
        },
        {
          "indexed": false,
          "internalType": "bool",
          "name": "approved",
          "type": "bool"
        }
      ],
      "name": "ApprovalForAll",
      "type": "event"
    },
    {
      "anonymous": false,
      "inputs": [
        {
          "indexed": false,
          "internalType": "uint256",
          "name": "value",
          "type": "uint256"
        }
      ],
      "name": "MintPriceChanged",
      "type": "event"
    },
    {
      "anonymous": false,
      "inputs": [
        {
          "indexed": true,
          "internalType": "address",
          "name": "from",
          "type": "address"
        },
        {
          "indexed": true,
          "internalType": "address",
          "name": "to",
          "type": "address"
        },
        {
          "indexed": true,
          "internalType": "uint256",
          "name": "tokenId",
          "type": "uint256"
        }
      ],
      "name": "Transfer",
      "type": "event"
    },
    {
      "inputs": [],
      "name": "MAX_PRESALE",
      "outputs": [
        {
          "internalType": "uint256",
          "name": "",
          "type": "uint256"
        }
      ],
      "stateMutability": "view",
      "type": "function"
    },
    {
      "inputs": [],
      "name": "MAX_TOKENS",
      "outputs": [
        {
          "internalType": "uint256",
          "name": "",
          "type": "uint256"
        }
      ],
      "stateMutability": "view",
      "type": "function"
    },
    {
      "inputs": [
        {
          "internalType": "address",
          "name": "to",
          "type": "address"
        },
        {
          "internalType": "uint256",
          "name": "tokenId",
          "type": "uint256"
        }
      ],
      "name": "approve",
      "outputs": [],
      "stateMutability": "nonpayable",
      "type": "function"
    },
    {
      "inputs": [
        {
          "internalType": "address",
          "name": "owner",
          "type": "address"
        }
      ],
      "name": "balanceOf",
      "outputs": [
        {
          "internalType": "uint256",
          "name": "",
          "type": "uint256"
        }
      ],
      "stateMutability": "view",
      "type": "function"
    },
    {
      "inputs": [],
      "name": "baseURI",
      "outputs": [
        {
          "internalType": "string",
          "name": "",
          "type": "string"
        }
      ],
      "stateMutability": "view",
      "type": "function"
    },
    {
      "inputs": [
        {
          "internalType": "uint256",
          "name": "value",
          "type": "uint256"
        }
      ],
      "name": "changeMintPrice",
      "outputs": [],
      "stateMutability": "nonpayable",
      "type": "function"
    },
    {
      "inputs": [
        {
          "internalType": "uint256",
          "name": "tokenId",
          "type": "uint256"
        }
      ],
      "name": "getApproved",
      "outputs": [
        {
          "internalType": "address",
          "name": "",
          "type": "address"
        }
      ],
      "stateMutability": "view",
      "type": "function"
    },
    {
      "inputs": [],
      "name": "getBalance",
      "outputs": [
        {
          "internalType": "uint256",
          "name": "",
          "type": "uint256"
        }
      ],
      "stateMutability": "view",
      "type": "function"
    },
    {
      "inputs": [
        {
          "internalType": "address",
          "name": "owner",
          "type": "address"
        },
        {
          "internalType": "address",
          "name": "operator",
          "type": "address"
        }
      ],
      "name": "isApprovedForAll",
      "outputs": [
        {
          "internalType": "bool",
          "name": "",
          "type": "bool"
        }
      ],
      "stateMutability": "view",
      "type": "function"
    },
    {
      "inputs": [],
      "name": "maxMint",
      "outputs": [
        {
          "internalType": "uint256",
          "name": "",
          "type": "uint256"
        }
      ],
      "stateMutability": "view",
      "type": "function"
    },
    {
      "inputs": [
        {
          "internalType": "uint256",
          "name": "numberOfTokens",
          "type": "uint256"
        },
        {
          "internalType": "address",
          "name": "recipient",
          "type": "address"
        },
        {
          "internalType": "string",
          "name": "tokenUri",
          "type": "string"
        }
      ],
      "name": "mint",
      "outputs": [
        {
          "internalType": "uint256",
          "name": "",
          "type": "uint256"
        }
      ],
      "stateMutability": "payable",
      "type": "function"
    },
    {
      "inputs": [],
      "name": "mintPrice",
      "outputs": [
        {
          "internalType": "uint256",
          "name": "",
          "type": "uint256"
        }
      ],
      "stateMutability": "view",
      "type": "function"
    },
    {
      "inputs": [],
      "name": "name",
      "outputs": [
        {
          "internalType": "string",
          "name": "",
          "type": "string"
        }
      ],
      "stateMutability": "view",
      "type": "function"
    },
    {
      "inputs": [
        {
          "internalType": "uint256",
          "name": "tokenId",
          "type": "uint256"
        }
      ],
      "name": "ownerOf",
      "outputs": [
        {
          "internalType": "address",
          "name": "",
          "type": "address"
        }
      ],
      "stateMutability": "view",
      "type": "function"
    },
    {
      "inputs": [],
      "name": "presaleIsActive",
      "outputs": [
        {
          "internalType": "bool",
          "name": "",
          "type": "bool"
        }
      ],
      "stateMutability": "view",
      "type": "function"
    },
    {
      "inputs": [],
      "name": "presale_mintPrice",
      "outputs": [
        {
          "internalType": "uint256",
          "name": "",
          "type": "uint256"
        }
      ],
      "stateMutability": "view",
      "type": "function"
    },
    {
      "inputs": [
        {
          "internalType": "address",
          "name": "from",
          "type": "address"
        },
        {
          "internalType": "address",
          "name": "to",
          "type": "address"
        },
        {
          "internalType": "uint256",
          "name": "tokenId",
          "type": "uint256"
        }
      ],
      "name": "safeTransferFrom",
      "outputs": [],
      "stateMutability": "nonpayable",
      "type": "function"
    },
    {
      "inputs": [
        {
          "internalType": "address",
          "name": "from",
          "type": "address"
        },
        {
          "internalType": "address",
          "name": "to",
          "type": "address"
        },
        {
          "internalType": "uint256",
          "name": "tokenId",
          "type": "uint256"
        },
        {
          "internalType": "bytes",
          "name": "_data",
          "type": "bytes"
        }
      ],
      "name": "safeTransferFrom",
      "outputs": [],
      "stateMutability": "nonpayable",
      "type": "function"
    },
    {
      "inputs": [],
      "name": "saleIsActive",
      "outputs": [
        {
          "internalType": "bool",
          "name": "",
          "type": "bool"
        }
      ],
      "stateMutability": "view",
      "type": "function"
    },
    {
      "inputs": [
        {
          "internalType": "address",
          "name": "operator",
          "type": "address"
        },
        {
          "internalType": "bool",
          "name": "approved",
          "type": "bool"
        }
      ],
      "name": "setApprovalForAll",
      "outputs": [],
      "stateMutability": "nonpayable",
      "type": "function"
    },
    {
      "inputs": [
        {
          "internalType": "bytes4",
          "name": "interfaceId",
          "type": "bytes4"
        }
      ],
      "name": "supportsInterface",
      "outputs": [
        {
          "internalType": "bool",
          "name": "",
          "type": "bool"
        }
      ],
      "stateMutability": "view",
      "type": "function"
    },
    {
      "inputs": [],
      "name": "symbol",
      "outputs": [
        {
          "internalType": "string",
          "name": "",
          "type": "string"
        }
      ],
      "stateMutability": "view",
      "type": "function"
    },
    {
      "inputs": [],
      "name": "togglePresaleState",
      "outputs": [],
      "stateMutability": "nonpayable",
      "type": "function"
    },
    {
      "inputs": [],
      "name": "toggleSaleState",
      "outputs": [],
      "stateMutability": "nonpayable",
      "type": "function"
    },
    {
      "inputs": [
        {
          "internalType": "uint256",
          "name": "index",
          "type": "uint256"
        }
      ],
      "name": "tokenByIndex",
      "outputs": [
        {
          "internalType": "uint256",
          "name": "",
          "type": "uint256"
        }
      ],
      "stateMutability": "view",
      "type": "function"
    },
    {
      "inputs": [
        {
          "internalType": "address",
          "name": "owner",
          "type": "address"
        },
        {
          "internalType": "uint256",
          "name": "index",
          "type": "uint256"
        }
      ],
      "name": "tokenOfOwnerByIndex",
      "outputs": [
        {
          "internalType": "uint256",
          "name": "",
          "type": "uint256"
        }
      ],
      "stateMutability": "view",
      "type": "function"
    },
    {
      "inputs": [
        {
          "internalType": "uint256",
          "name": "tokenId",
          "type": "uint256"
        }
      ],
      "name": "tokenURI",
      "outputs": [
        {
          "internalType": "string",
          "name": "",
          "type": "string"
        }
      ],
      "stateMutability": "view",
      "type": "function"
    },
    {
      "inputs": [
        {
          "internalType": "uint256",
          "name": "",
          "type": "uint256"
        }
      ],
      "name": "tokenURIsMinted",
      "outputs": [
        {
          "internalType": "string",
          "name": "",
          "type": "string"
        }
      ],
      "stateMutability": "view",
      "type": "function"
    },
    {
      "inputs": [],
      "name": "totalSupply",
      "outputs": [
        {
          "internalType": "uint256",
          "name": "",
          "type": "uint256"
        }
      ],
      "stateMutability": "view",
      "type": "function"
    },
    {
      "inputs": [
        {
          "internalType": "address",
          "name": "from",
          "type": "address"
        },
        {
          "internalType": "address",
          "name": "to",
          "type": "address"
        },
        {
          "internalType": "uint256",
          "name": "tokenId",
          "type": "uint256"
        }
      ],
      "name": "transferFrom",
      "outputs": [],
      "stateMutability": "nonpayable",
      "type": "function"
    },
    {
      "inputs": [
        {
          "internalType": "address payable",
          "name": "_to",
          "type": "address"
        }
      ],
      "name": "withdrawMoneyTo",
      "outputs": [],
      "stateMutability": "nonpayable",
      "type": "function"
    }
  ],
  "bytecode": "0x608060405273be8d4707b4d9b7a87de9bac74a9fa583ca04bfc1600a60006101000a81548173ffffffffffffffffffffffffffffffffffffffff021916908373ffffffffffffffffffffffffffffffffffffffff160217905550666a94d74f430000600e55600a600f5560026010556001601160006101000a81548160ff0219169083151502179055506001601160016101000a81548160ff021916908315150217905550348015620000b157600080fd5b506040518060400160405280600a81526020017f446f674e667444656d6f000000000000000000000000000000000000000000008152506040518060400160405280600681526020017f444f474e46540000000000000000000000000000000000000000000000000000815250620001366301ffc9a760e01b620001e260201b60201c565b81600690805190602001906200014e92919062000307565b5080600790805190602001906200016792919062000307565b50620001806380ac58cd60e01b620001e260201b60201c565b62000198635b5e139f60e01b620001e260201b60201c565b620001b063780e9d6360e01b620001e260201b60201c565b5050620001dc60405180608001604052806051815260200162003ea760519139620002eb60201b60201c565b620003ad565b63ffffffff60e01b817bffffffffffffffffffffffffffffffffffffffffffffffffffffffff191614156200027f576040517f08c379a000000000000000000000000000000000000000000000000000000000815260040180806020018281038252601c8152602001807f4552433136353a20696e76616c696420696e746572666163652069640000000081525060200191505060405180910390fd5b6001600080837bffffffffffffffffffffffffffffffffffffffffffffffffffffffff19167bffffffffffffffffffffffffffffffffffffffffffffffffffffffff1916815260200190815260200160002060006101000a81548160ff02191690831515021790555050565b80600990805190602001906200030392919062000307565b5050565b828054600181600116156101000203166002900490600052602060002090601f016020900481019282601f106200034a57805160ff19168380011785556200037b565b828001600101855582156200037b579182015b828111156200037a5782518255916020019190600101906200035d565b5b5090506200038a91906200038e565b5090565b5b80821115620003a95760008160009055506001016200038f565b5090565b613aea80620003bd6000396000f3fe6080604052600436106101d85760003560e01c80636352211e11610102578063b88d4fde11610095578063e985e9c511610064578063e985e9c514610cdd578063eb8d244414610d64578063f285e69e14610d91578063f47c84c514610da8576101d8565b8063b88d4fde14610a07578063c87b56dd14610b19578063daaeec8614610bcd578063e67e402c14610be4576101d8565b80637501f741116100d15780637501f7411461083b5780637f247dd51461086657806395d89b411461091a578063a22cb465146109aa576101d8565b80636352211e146106b65780636817c76c1461071b5780636c0360eb1461074657806370a08231146107d6576101d8565b806323b872dd1161017a5780633fd17366116101495780633fd173661461058657806342842e0e146105c15780634d4c4e991461063c5780634f6ccce714610667576101d8565b806323b872dd146104445780632f745c59146104bf57806330f72cd41461052e5780633ba343e61461055b576101d8565b8063095ea7b3116101b6578063095ea7b3146103425780630ff8d8a51461039d57806312065fe0146103ee57806318160ddd14610419576101d8565b806301ffc9a7146101dd57806306fdde031461024d578063081812fc146102dd575b600080fd5b3480156101e957600080fd5b506102356004803603602081101561020057600080fd5b8101908080357bffffffffffffffffffffffffffffffffffffffffffffffffffffffff19169060200190929190505050610dd3565b60405180821515815260200191505060405180910390f35b34801561025957600080fd5b50610262610e3a565b6040518080602001828103825283818151815260200191508051906020019080838360005b838110156102a2578082015181840152602081019050610287565b50505050905090810190601f1680156102cf5780820380516001836020036101000a031916815260200191505b509250505060405180910390f35b3480156102e957600080fd5b506103166004803603602081101561030057600080fd5b8101908080359060200190929190505050610edc565b604051808273ffffffffffffffffffffffffffffffffffffffff16815260200191505060405180910390f35b34801561034e57600080fd5b5061039b6004803603604081101561036557600080fd5b81019080803573ffffffffffffffffffffffffffffffffffffffff16906020019092919080359060200190929190505050610f77565b005b3480156103a957600080fd5b506103ec600480360360208110156103c057600080fd5b81019080803573ffffffffffffffffffffffffffffffffffffffff1690602001909291905050506110bb565b005b3480156103fa57600080fd5b5061040361110c565b6040518082815260200191505060405180910390f35b34801561042557600080fd5b5061042e611114565b6040518082815260200191505060405180910390f35b34801561045057600080fd5b506104bd6004803603606081101561046757600080fd5b81019080803573ffffffffffffffffffffffffffffffffffffffff169060200190929190803573ffffffffffffffffffffffffffffffffffffffff16906020019092919080359060200190929190505050611125565b005b3480156104cb57600080fd5b50610518600480360360408110156104e257600080fd5b81019080803573ffffffffffffffffffffffffffffffffffffffff1690602001909291908035906020019092919050505061119b565b6040518082815260200191505060405180910390f35b34801561053a57600080fd5b506105436111f6565b60405180821515815260200191505060405180910390f35b34801561056757600080fd5b50610570611209565b6040518082815260200191505060405180910390f35b34801561059257600080fd5b506105bf600480360360208110156105a957600080fd5b8101908080359060200190929190505050611214565b005b3480156105cd57600080fd5b5061063a600480360360608110156105e457600080fd5b81019080803573ffffffffffffffffffffffffffffffffffffffff169060200190929190803573ffffffffffffffffffffffffffffffffffffffff16906020019092919080359060200190929190505050611318565b005b34801561064857600080fd5b50610651611338565b6040518082815260200191505060405180910390f35b34801561067357600080fd5b506106a06004803603602081101561068a57600080fd5b810190808035906020019092919050505061133e565b6040518082815260200191505060405180910390f35b3480156106c257600080fd5b506106ef600480360360208110156106d957600080fd5b8101908080359060200190929190505050611361565b604051808273ffffffffffffffffffffffffffffffffffffffff16815260200191505060405180910390f35b34801561072757600080fd5b50610730611398565b6040518082815260200191505060405180910390f35b34801561075257600080fd5b5061075b61139e565b6040518080602001828103825283818151815260200191508051906020019080838360005b8381101561079b578082015181840152602081019050610780565b50505050905090810190601f1680156107c85780820380516001836020036101000a031916815260200191505b509250505060405180910390f35b3480156107e257600080fd5b50610825600480360360208110156107f957600080fd5b81019080803573ffffffffffffffffffffffffffffffffffffffff169060200190929190505050611440565b6040518082815260200191505060405180910390f35b34801561084757600080fd5b50610850611515565b6040518082815260200191505060405180910390f35b34801561087257600080fd5b5061089f6004803603602081101561088957600080fd5b810190808035906020019092919050505061151a565b6040518080602001828103825283818151815260200191508051906020019080838360005b838110156108df5780820151818401526020810190506108c4565b50505050905090810190601f16801561090c5780820380516001836020036101000a031916815260200191505b509250505060405180910390f35b34801561092657600080fd5b5061092f6115d3565b6040518080602001828103825283818151815260200191508051906020019080838360005b8381101561096f578082015181840152602081019050610954565b50505050905090810190601f16801561099c5780820380516001836020036101000a031916815260200191505b509250505060405180910390f35b3480156109b657600080fd5b50610a05600480360360408110156109cd57600080fd5b81019080803573ffffffffffffffffffffffffffffffffffffffff169060200190929190803515159060200190929190505050611675565b005b348015610a1357600080fd5b50610b1760048036036080811015610a2a57600080fd5b81019080803573ffffffffffffffffffffffffffffffffffffffff169060200190929190803573ffffffffffffffffffffffffffffffffffffffff1690602001909291908035906020019092919080359060200190640100000000811115610a9157600080fd5b820183602082011115610aa357600080fd5b80359060200191846001830284011164010000000083111715610ac557600080fd5b91908080601f016020809104026020016040519081016040528093929190818152602001838380828437600081840152601f19601f82011690508083019250505050505050919291929050505061182b565b005b348015610b2557600080fd5b50610b5260048036036020811015610b3c57600080fd5b81019080803590602001909291905050506118a3565b6040518080602001828103825283818151815260200191508051906020019080838360005b83811015610b92578082015181840152602081019050610b77565b50505050905090810190601f168015610bbf5780820380516001836020036101000a031916815260200191505b509250505060405180910390f35b348015610bd957600080fd5b50610be2611b8c565b005b610cc760048036036060811015610bfa57600080fd5b8101908080359060200190929190803573ffffffffffffffffffffffffffffffffffffffff16906020019092919080359060200190640100000000811115610c4157600080fd5b820183602082011115610c5357600080fd5b80359060200191846001830284011164010000000083111715610c7557600080fd5b91908080601f016020809104026020016040519081016040528093929190818152602001838380828437600081840152601f19601f820116905080830192505050505050509192919290505050611bb8565b6040518082815260200191505060405180910390f35b348015610ce957600080fd5b50610d4c60048036036040811015610d0057600080fd5b81019080803573ffffffffffffffffffffffffffffffffffffffff169060200190929190803573ffffffffffffffffffffffffffffffffffffffff16906020019092919050505061227a565b60405180821515815260200191505060405180910390f35b348015610d7057600080fd5b50610d7961230e565b60405180821515815260200191505060405180910390f35b348015610d9d57600080fd5b50610da6612321565b005b348015610db457600080fd5b50610dbd61234d565b6040518082815260200191505060405180910390f35b6000806000837bffffffffffffffffffffffffffffffffffffffffffffffffffffffff19167bffffffffffffffffffffffffffffffffffffffffffffffffffffffff1916815260200190815260200160002060009054906101000a900460ff169050919050565b606060068054600181600116156101000203166002900480601f016020809104026020016040519081016040528092919081815260200182805460018160011615610100020316600290048015610ed25780601f10610ea757610100808354040283529160200191610ed2565b820191906000526020600020905b815481529060010190602001808311610eb557829003601f168201915b5050505050905090565b6000610ee782612353565b610f3c576040517f08c379a000000000000000000000000000000000000000000000000000000000815260040180806020018281038252602c8152602001806139b3602c913960400191505060405180910390fd5b6004600083815260200190815260200160002060009054906101000a900473ffffffffffffffffffffffffffffffffffffffff169050919050565b6000610f8282611361565b90508073ffffffffffffffffffffffffffffffffffffffff168373ffffffffffffffffffffffffffffffffffffffff161415611009576040517f08c379a0000000000000000000000000000000000000000000000000000000008152600401808060200182810382526021815260200180613a636021913960400191505060405180910390fd5b8073ffffffffffffffffffffffffffffffffffffffff16611028612370565b73ffffffffffffffffffffffffffffffffffffffff161480611057575061105681611051612370565b61227a565b5b6110ac576040517f08c379a00000000000000000000000000000000000000000000000000000000081526004018080602001828103825260388152602001806138c46038913960400191505060405180910390fd5b6110b68383612378565b505050565b8073ffffffffffffffffffffffffffffffffffffffff166108fc6110dd61110c565b9081150290604051600060405180830381858888f19350505050158015611108573d6000803e3d6000fd5b5050565b600047905090565b60006111206002612431565b905090565b611136611130612370565b82612446565b61118b576040517f08c379a0000000000000000000000000000000000000000000000000000000008152600401808060200182810382526031815260200180613a846031913960400191505060405180910390fd5b61119683838361253a565b505050565b60006111ee82600160008673ffffffffffffffffffffffffffffffffffffffff1673ffffffffffffffffffffffffffffffffffffffff16815260200190815260200160002061277d90919063ffffffff16565b905092915050565b601160019054906101000a900460ff1681565b662386f26fc1000081565b600a60009054906101000a900473ffffffffffffffffffffffffffffffffffffffff1673ffffffffffffffffffffffffffffffffffffffff163373ffffffffffffffffffffffffffffffffffffffff16146112d7576040517f08c379a00000000000000000000000000000000000000000000000000000000081526004018080602001828103825260108152602001807f596f75277265206e6f742061646d696e0000000000000000000000000000000081525060200191505060405180910390fd5b80600e819055507f25b1f9f6b6e61dfca5575239769e4450ed2e49176670837f5d1a82a9a2fc693f816040518082815260200191505060405180910390a150565b6113338383836040518060200160405280600081525061182b565b505050565b60105481565b60008061135583600261279790919063ffffffff16565b50905080915050919050565b6000611391826040518060600160405280602981526020016139266029913960026127c39092919063ffffffff16565b9050919050565b600e5481565b606060098054600181600116156101000203166002900480601f0160208091040260200160405190810160405280929190818152602001828054600181600116156101000203166002900480156114365780601f1061140b57610100808354040283529160200191611436565b820191906000526020600020905b81548152906001019060200180831161141957829003601f168201915b5050505050905090565b60008073ffffffffffffffffffffffffffffffffffffffff168273ffffffffffffffffffffffffffffffffffffffff1614156114c7576040517f08c379a000000000000000000000000000000000000000000000000000000000815260040180806020018281038252602a8152602001806138fc602a913960400191505060405180910390fd5b61150e600160008473ffffffffffffffffffffffffffffffffffffffff1673ffffffffffffffffffffffffffffffffffffffff1681526020019081526020016000206127e2565b9050919050565b600381565b600c818154811061152757fe5b906000526020600020016000915090508054600181600116156101000203166002900480601f0160208091040260200160405190810160405280929190818152602001828054600181600116156101000203166002900480156115cb5780601f106115a0576101008083540402835291602001916115cb565b820191906000526020600020905b8154815290600101906020018083116115ae57829003601f168201915b505050505081565b606060078054600181600116156101000203166002900480601f01602080910402602001604051908101604052809291908181526020018280546001816001161561010002031660029004801561166b5780601f106116405761010080835404028352916020019161166b565b820191906000526020600020905b81548152906001019060200180831161164e57829003601f168201915b5050505050905090565b61167d612370565b73ffffffffffffffffffffffffffffffffffffffff168273ffffffffffffffffffffffffffffffffffffffff16141561171e576040517f08c379a00000000000000000000000000000000000000000000000000000000081526004018080602001828103825260198152602001807f4552433732313a20617070726f766520746f2063616c6c65720000000000000081525060200191505060405180910390fd5b806005600061172b612370565b73ffffffffffffffffffffffffffffffffffffffff1673ffffffffffffffffffffffffffffffffffffffff16815260200190815260200160002060008473ffffffffffffffffffffffffffffffffffffffff1673ffffffffffffffffffffffffffffffffffffffff16815260200190815260200160002060006101000a81548160ff0219169083151502179055508173ffffffffffffffffffffffffffffffffffffffff166117d8612370565b73ffffffffffffffffffffffffffffffffffffffff167f17307eab39ab6107e8899845ad3d59bd9653f200f220920489ca2b5937696c318360405180821515815260200191505060405180910390a35050565b61183c611836612370565b83612446565b611891576040517f08c379a0000000000000000000000000000000000000000000000000000000008152600401808060200182810382526031815260200180613a846031913960400191505060405180910390fd5b61189d848484846127f7565b50505050565b60606118ae82612353565b611903576040517f08c379a000000000000000000000000000000000000000000000000000000000815260040180806020018281038252602f815260200180613a34602f913960400191505060405180910390fd5b6060600860008481526020019081526020016000208054600181600116156101000203166002900480601f0160208091040260200160405190810160405280929190818152602001828054600181600116156101000203166002900480156119ac5780601f10611981576101008083540402835291602001916119ac565b820191906000526020600020905b81548152906001019060200180831161198f57829003601f168201915b505050505090506000600980546001816001161561010002031660029004905014156119db5780915050611b87565b600081511115611ab4576009816040516020018083805460018160011615610100020316600290048015611a465780601f10611a24576101008083540402835291820191611a46565b820191906000526020600020905b815481529060010190602001808311611a32575b505082805190602001908083835b60208310611a775780518252602082019150602081019050602083039250611a54565b6001836020036101000a03801982511681845116808217855250505050505090500192505050604051602081830303815290604052915050611b87565b6009611abf84612869565b6040516020018083805460018160011615610100020316600290048015611b1d5780601f10611afb576101008083540402835291820191611b1d565b820191906000526020600020905b815481529060010190602001808311611b09575b505082805190602001908083835b60208310611b4e5780518252602082019150602081019050602083039250611b2b565b6001836020036101000a038019825116818451168082178552505050505050905001925050506040516020818303038152906040529150505b919050565b601160009054906101000a900460ff1615601160006101000a81548160ff021916908315150217905550565b6000601160009054906101000a900460ff16611c1f576040517f08c379a00000000000000000000000000000000000000000000000000000000081526004018080602001828103825260218152602001806138536021913960400191505060405180910390fd5b600d826040518082805190602001908083835b60208310611c555780518252602082019150602081019050602083039250611c32565b6001836020036101000a038019825116818451168082178552505050505050905001915050908152602001604051809103902060009054906101000a900460ff1615611d09576040517f08c379a000000000000000000000000000000000000000000000000000000000815260040180806020018281038252601a8152602001807f54686973206e6674206973206d696e74656420616c726561647900000000000081525060200191505060405180910390fd5b6000841415611d63576040517f08c379a000000000000000000000000000000000000000000000000000000000815260040180806020018281038252602181526020018061394f6021913960400191505060405180910390fd5b601054611d6e611114565b10611eed576003841115611dcd576040517f08c379a000000000000000000000000000000000000000000000000000000000815260040180806020018281038252602481526020018061380a6024913960400191505060405180910390fd5b600f54611dea85611ddc611114565b6129b090919063ffffffff16565b1115611e5e576040517f08c379a00000000000000000000000000000000000000000000000000000000081526004018080602001828103825260208152602001807f4d696e74696e6720776f756c6420657863656564206d61782e20737570706c7981525060200191505060405180910390fd5b34611e7485600e54612a3890919063ffffffff16565b1115611ee8576040517f08c379a00000000000000000000000000000000000000000000000000000000081526004018080602001828103825260168152602001807f4e6f7420656e6f7567682045746865722073656e742e0000000000000000000081525060200191505060405180910390fd5b612068565b6002841115611f47576040517f08c379a000000000000000000000000000000000000000000000000000000000815260040180806020018281038252602581526020018061382e6025913960400191505060405180910390fd5b601054611f6485611f56611114565b6129b090919063ffffffff16565b1115611fd8576040517f08c379a000000000000000000000000000000000000000000000000000000000815260040180806020018281038252600c8152602001807f50726573616c652066756c6c000000000000000000000000000000000000000081525060200191505060405180910390fd5b34611ff385662386f26fc10000612a3890919063ffffffff16565b1115612067576040517f08c379a00000000000000000000000000000000000000000000000000000000081526004018080602001828103825260198152602001807f4e6f7420656e6f7567682045746865722073656e742e2076320000000000000081525060200191505060405180910390fd5b5b60005b8481101561227257600061207d611114565b9050600061208b600b612abe565b9050600f54821015612263576120a18682612acc565b6120ab8186612cc0565b6120b5600b612d4a565b600c6120bf61139e565b866040516020018083805190602001908083835b602083106120f657805182526020820191506020810190506020830392506120d3565b6001836020036101000a03801982511681845116808217855250505050505090500182805190602001908083835b602083106121475780518252602082019150602081019050602083039250612124565b6001836020036101000a038019825116818451168082178552505050505050905001925050506040516020818303038152906040529080600181540180825580915050600190039060005260206000200160009091909190915090805190602001906121b4929190613718565b506001600d866040518082805190602001908083835b602083106121ed57805182526020820191506020810190506020830392506121ca565b6001836020036101000a038019825116818451168082178552505050505050905001915050908152602001604051809103902060006101000a81548160ff021916908315150217905550612262600a60009054906101000a900473ffffffffffffffffffffffffffffffffffffffff166110bb565b5b5050808060010191505061206b565b509392505050565b6000600560008473ffffffffffffffffffffffffffffffffffffffff1673ffffffffffffffffffffffffffffffffffffffff16815260200190815260200160002060008373ffffffffffffffffffffffffffffffffffffffff1673ffffffffffffffffffffffffffffffffffffffff16815260200190815260200160002060009054906101000a900460ff16905092915050565b601160009054906101000a900460ff1681565b601160019054906101000a900460ff1615601160016101000a81548160ff021916908315150217905550565b600f5481565b6000612369826002612d6090919063ffffffff16565b9050919050565b600033905090565b816004600083815260200190815260200160002060006101000a81548173ffffffffffffffffffffffffffffffffffffffff021916908373ffffffffffffffffffffffffffffffffffffffff160217905550808273ffffffffffffffffffffffffffffffffffffffff166123eb83611361565b73ffffffffffffffffffffffffffffffffffffffff167f8c5be1e5ebec7d5bd14f71427d1e84f3dd0314c0f7b2291e5b200ac8c7c3b92560405160405180910390a45050565b600061243f82600001612d7a565b9050919050565b600061245182612353565b6124a6576040517f08c379a000000000000000000000000000000000000000000000000000000000815260040180806020018281038252602c815260200180613898602c913960400191505060405180910390fd5b60006124b183611361565b90508073ffffffffffffffffffffffffffffffffffffffff168473ffffffffffffffffffffffffffffffffffffffff16148061252057508373ffffffffffffffffffffffffffffffffffffffff1661250884610edc565b73ffffffffffffffffffffffffffffffffffffffff16145b806125315750612530818561227a565b5b91505092915050565b8273ffffffffffffffffffffffffffffffffffffffff1661255a82611361565b73ffffffffffffffffffffffffffffffffffffffff16146125c6576040517f08c379a0000000000000000000000000000000000000000000000000000000008152600401808060200182810382526029815260200180613a0b6029913960400191505060405180910390fd5b600073ffffffffffffffffffffffffffffffffffffffff168273ffffffffffffffffffffffffffffffffffffffff16141561264c576040517f08c379a00000000000000000000000000000000000000000000000000000000081526004018080602001828103825260248152602001806138746024913960400191505060405180910390fd5b612657838383612d8b565b612662600082612378565b6126b381600160008673ffffffffffffffffffffffffffffffffffffffff1673ffffffffffffffffffffffffffffffffffffffff168152602001908152602001600020612d9090919063ffffffff16565b5061270581600160008573ffffffffffffffffffffffffffffffffffffffff1673ffffffffffffffffffffffffffffffffffffffff168152602001908152602001600020612daa90919063ffffffff16565b5061271c81836002612dc49092919063ffffffff16565b50808273ffffffffffffffffffffffffffffffffffffffff168473ffffffffffffffffffffffffffffffffffffffff167fddf252ad1be2c89b69c2b068fc378daa952ba7f163c4a11628f55a4df523b3ef60405160405180910390a4505050565b600061278c8360000183612df9565b60001c905092915050565b6000806000806127aa8660000186612e7c565b915091508160001c8160001c9350935050509250929050565b60006127d6846000018460001b84612f15565b60001c90509392505050565b60006127f08260000161300b565b9050919050565b61280284848461253a565b61280e8484848461301c565b612863576040517f08c379a00000000000000000000000000000000000000000000000000000000081526004018080602001828103825260328152602001806137d86032913960400191505060405180910390fd5b50505050565b606060008214156128b1576040518060400160405280600181526020017f300000000000000000000000000000000000000000000000000000000000000081525090506129ab565b600082905060005b600082146128db578080600101915050600a82816128d357fe5b0491506128b9565b60608167ffffffffffffffff811180156128f457600080fd5b506040519080825280601f01601f1916602001820160405280156129275781602001600182028036833780820191505090505b50905060006001830390508593505b600084146129a357600a848161294857fe5b0660300160f81b8282806001900393508151811061296257fe5b60200101907effffffffffffffffffffffffffffffffffffffffffffffffffffffffffffff1916908160001a905350600a848161299b57fe5b049350612936565b819450505050505b919050565b600080828401905083811015612a2e576040517f08c379a000000000000000000000000000000000000000000000000000000000815260040180806020018281038252601b8152602001807f536166654d6174683a206164646974696f6e206f766572666c6f77000000000081525060200191505060405180910390fd5b8091505092915050565b600080831415612a4b5760009050612ab8565b6000828402905082848281612a5c57fe5b0414612ab3576040517f08c379a00000000000000000000000000000000000000000000000000000000081526004018080602001828103825260218152602001806139926021913960400191505060405180910390fd5b809150505b92915050565b600081600001549050919050565b600073ffffffffffffffffffffffffffffffffffffffff168273ffffffffffffffffffffffffffffffffffffffff161415612b6f576040517f08c379a00000000000000000000000000000000000000000000000000000000081526004018080602001828103825260208152602001807f4552433732313a206d696e7420746f20746865207a65726f206164647265737381525060200191505060405180910390fd5b612b7881612353565b15612beb576040517f08c379a000000000000000000000000000000000000000000000000000000000815260040180806020018281038252601c8152602001807f4552433732313a20746f6b656e20616c7265616479206d696e7465640000000081525060200191505060405180910390fd5b612bf760008383612d8b565b612c4881600160008573ffffffffffffffffffffffffffffffffffffffff1673ffffffffffffffffffffffffffffffffffffffff168152602001908152602001600020612daa90919063ffffffff16565b50612c5f81836002612dc49092919063ffffffff16565b50808273ffffffffffffffffffffffffffffffffffffffff16600073ffffffffffffffffffffffffffffffffffffffff167fddf252ad1be2c89b69c2b068fc378daa952ba7f163c4a11628f55a4df523b3ef60405160405180910390a45050565b612cc982612353565b612d1e576040517f08c379a000000000000000000000000000000000000000000000000000000000815260040180806020018281038252602c8152602001806139df602c913960400191505060405180910390fd5b80600860008481526020019081526020016000209080519060200190612d45929190613718565b505050565b6001816000016000828254019250508190555050565b6000612d72836000018360001b613235565b905092915050565b600081600001805490509050919050565b505050565b6000612da2836000018360001b613258565b905092915050565b6000612dbc836000018360001b613340565b905092915050565b6000612df0846000018460001b8473ffffffffffffffffffffffffffffffffffffffff1660001b6133b0565b90509392505050565b600081836000018054905011612e5a576040517f08c379a00000000000000000000000000000000000000000000000000000000081526004018080602001828103825260228152602001806137b66022913960400191505060405180910390fd5b826000018281548110612e6957fe5b9060005260206000200154905092915050565b60008082846000018054905011612ede576040517f08c379a00000000000000000000000000000000000000000000000000000000081526004018080602001828103825260228152602001806139706022913960400191505060405180910390fd5b6000846000018481548110612eef57fe5b906000526020600020906002020190508060000154816001015492509250509250929050565b60008084600101600085815260200190815260200160002054905060008114158390612fdc576040517f08c379a00000000000000000000000000000000000000000000000000000000081526004018080602001828103825283818151815260200191508051906020019080838360005b83811015612fa1578082015181840152602081019050612f86565b50505050905090810190601f168015612fce5780820380516001836020036101000a031916815260200191505b509250505060405180910390fd5b50846000016001820381548110612fef57fe5b9060005260206000209060020201600101549150509392505050565b600081600001805490509050919050565b600061303d8473ffffffffffffffffffffffffffffffffffffffff1661348c565b61304a576001905061322d565b60606131b463150b7a0260e01b61305f612370565b888787604051602401808573ffffffffffffffffffffffffffffffffffffffff1681526020018473ffffffffffffffffffffffffffffffffffffffff16815260200183815260200180602001828103825283818151815260200191508051906020019080838360005b838110156130e35780820151818401526020810190506130c8565b50505050905090810190601f1680156131105780820380516001836020036101000a031916815260200191505b5095505050505050604051602081830303815290604052907bffffffffffffffffffffffffffffffffffffffffffffffffffffffff19166020820180517bffffffffffffffffffffffffffffffffffffffffffffffffffffffff83818316178352505050506040518060600160405280603281526020016137d8603291398773ffffffffffffffffffffffffffffffffffffffff166134d79092919063ffffffff16565b905060008180602001905160208110156131cd57600080fd5b8101908080519060200190929190505050905063150b7a0260e01b7bffffffffffffffffffffffffffffffffffffffffffffffffffffffff1916817bffffffffffffffffffffffffffffffffffffffffffffffffffffffff191614925050505b949350505050565b600080836001016000848152602001908152602001600020541415905092915050565b6000808360010160008481526020019081526020016000205490506000811461333457600060018203905060006001866000018054905003905060008660000182815481106132a357fe5b90600052602060002001549050808760000184815481106132c057fe5b90600052602060002001819055506001830187600101600083815260200190815260200160002081905550866000018054806132f857fe5b6001900381819060005260206000200160009055905586600101600087815260200190815260200160002060009055600194505050505061333a565b60009150505b92915050565b600061334c83836134ef565b6133a55782600001829080600181540180825580915050600190039060005260206000200160009091909190915055826000018054905083600101600084815260200190815260200160002081905550600190506133aa565b600090505b92915050565b600080846001016000858152602001908152602001600020549050600081141561345757846000016040518060400160405280868152602001858152509080600181540180825580915050600190039060005260206000209060020201600090919091909150600082015181600001556020820151816001015550508460000180549050856001016000868152602001908152602001600020819055506001915050613485565b8285600001600183038154811061346a57fe5b90600052602060002090600202016001018190555060009150505b9392505050565b60008060007fc5d2460186f7233c927e7db2dcc703c0e500b653ca82273b7bfad8045d85a47060001b9050833f91508082141580156134ce57506000801b8214155b92505050919050565b60606134e68484600085613512565b90509392505050565b600080836001016000848152602001908152602001600020541415905092915050565b606061351d8561348c565b61358f576040517f08c379a000000000000000000000000000000000000000000000000000000000815260040180806020018281038252601d8152602001807f416464726573733a2063616c6c20746f206e6f6e2d636f6e747261637400000081525060200191505060405180910390fd5b600060608673ffffffffffffffffffffffffffffffffffffffff1685876040518082805190602001908083835b602083106135df57805182526020820191506020810190506020830392506135bc565b6001836020036101000a03801982511681845116808217855250505050505090500191505060006040518083038185875af1925050503d8060008114613641576040519150601f19603f3d011682016040523d82523d6000602084013e613646565b606091505b5091509150811561365b578092505050613710565b60008151111561366e5780518082602001fd5b836040517f08c379a00000000000000000000000000000000000000000000000000000000081526004018080602001828103825283818151815260200191508051906020019080838360005b838110156136d55780820151818401526020810190506136ba565b50505050905090810190601f1680156137025780820380516001836020036101000a031916815260200191505b509250505060405180910390fd5b949350505050565b828054600181600116156101000203166002900490600052602060002090601f016020900481019282601f1061375957805160ff1916838001178555613787565b82800160010185558215613787579182015b8281111561378657825182559160200191906001019061376b565b5b5090506137949190613798565b5090565b5b808211156137b1576000816000905550600101613799565b509056fe456e756d657261626c655365743a20696e646578206f7574206f6620626f756e64734552433732313a207472616e7366657220746f206e6f6e20455243373231526563656976657220696d706c656d656e746572596f752063616e206f6e6c79206d696e74203320746f6b656e7320617420612074696d65596f752063616e206f6e6c79206d696e74203220746f6b656e7320696e2070726573616c6553616c65206d7573742062652061637469766520746f206d696e7420546f6b656e4552433732313a207472616e7366657220746f20746865207a65726f20616464726573734552433732313a206f70657261746f7220717565727920666f72206e6f6e6578697374656e7420746f6b656e4552433732313a20617070726f76652063616c6c6572206973206e6f74206f776e6572206e6f7220617070726f76656420666f7220616c6c4552433732313a2062616c616e636520717565727920666f7220746865207a65726f20616464726573734552433732313a206f776e657220717565727920666f72206e6f6e6578697374656e7420746f6b656e596f75206e65656420746f206d696e74206174206c65617374203120746f6b656e456e756d657261626c654d61703a20696e646578206f7574206f6620626f756e6473536166654d6174683a206d756c7469706c69636174696f6e206f766572666c6f774552433732313a20617070726f76656420717565727920666f72206e6f6e6578697374656e7420746f6b656e4552433732314d657461646174613a2055524920736574206f66206e6f6e6578697374656e7420746f6b656e4552433732313a207472616e73666572206f6620746f6b656e2074686174206973206e6f74206f776e4552433732314d657461646174613a2055524920717565727920666f72206e6f6e6578697374656e7420746f6b656e4552433732313a20617070726f76616c20746f2063757272656e74206f776e65724552433732313a207472616e736665722063616c6c6572206973206e6f74206f776e6572206e6f7220617070726f766564a2646970667358221220d099364c34b469a78bf101dbf3cffd7d73aac392fb5edf8245db8d9f4546944064736f6c6343000703003368747470733a2f2f676174657761792e70696e6174612e636c6f75642f697066732f516d62556d6767427262425050763138674b614258377865584d38566834714a74336459766e3865576d6a5954482f",
  "linkReferences": {},
  "deployedLinkReferences": {}
}