{
  "_format": "hh-sol-artifact-1",
  "contractName": "DogNftDemo",
  "sourceName": "contracts/DogNftDemo.sol",
  "abi": [
    {
      "inputs": [],
      "stateMutability": "nonpayable",
      "type": "constructor"
    },
    {
      "anonymous": false,
      "inputs": [
        {
          "indexed": true,
          "internalType": "address",
          "name": "owner",
          "type": "address"
        },
        {
          "indexed": true,
          "internalType": "address",
          "name": "approved",
          "type": "address"
        },
        {
          "indexed": true,
          "internalType": "uint256",
          "name": "tokenId",
          "type": "uint256"
        }
      ],
      "name": "Approval",
      "type": "event"
    },
    {
      "anonymous": false,
      "inputs": [
        {
          "indexed": true,
          "internalType": "address",
          "name": "owner",
          "type": "address"
        },
        {
          "indexed": true,
          "internalType": "address",
          "name": "operator",
          "type": "address"
        },
        {
          "indexed": false,
          "internalType": "bool",
          "name": "approved",
          "type": "bool"
        }
      ],
      "name": "ApprovalForAll",
      "type": "event"
    },
    {
      "anonymous": false,
      "inputs": [
        {
          "indexed": true,
          "internalType": "address",
          "name": "from",
          "type": "address"
        },
        {
          "indexed": true,
          "internalType": "address",
          "name": "to",
          "type": "address"
        },
        {
          "indexed": true,
          "internalType": "uint256",
          "name": "tokenId",
          "type": "uint256"
        }
      ],
      "name": "Transfer",
      "type": "event"
    },
    {
      "inputs": [],
      "name": "MAX_TOKENS",
      "outputs": [
        {
          "internalType": "uint256",
          "name": "",
          "type": "uint256"
        }
      ],
      "stateMutability": "view",
      "type": "function"
    },
    {
      "inputs": [
        {
          "internalType": "address",
          "name": "to",
          "type": "address"
        },
        {
          "internalType": "uint256",
          "name": "tokenId",
          "type": "uint256"
        }
      ],
      "name": "approve",
      "outputs": [],
      "stateMutability": "nonpayable",
      "type": "function"
    },
    {
      "inputs": [
        {
          "internalType": "address",
          "name": "owner",
          "type": "address"
        }
      ],
      "name": "balanceOf",
      "outputs": [
        {
          "internalType": "uint256",
          "name": "",
          "type": "uint256"
        }
      ],
      "stateMutability": "view",
      "type": "function"
    },
    {
      "inputs": [],
      "name": "baseURI",
      "outputs": [
        {
          "internalType": "string",
          "name": "",
          "type": "string"
        }
      ],
      "stateMutability": "view",
      "type": "function"
    },
    {
      "inputs": [
        {
          "internalType": "uint256",
          "name": "tokenId",
          "type": "uint256"
        }
      ],
      "name": "getApproved",
      "outputs": [
        {
          "internalType": "address",
          "name": "",
          "type": "address"
        }
      ],
      "stateMutability": "view",
      "type": "function"
    },
    {
      "inputs": [],
      "name": "getBalance",
      "outputs": [
        {
          "internalType": "uint256",
          "name": "",
          "type": "uint256"
        }
      ],
      "stateMutability": "view",
      "type": "function"
    },
    {
      "inputs": [
        {
          "internalType": "address",
          "name": "owner",
          "type": "address"
        },
        {
          "internalType": "address",
          "name": "operator",
          "type": "address"
        }
      ],
      "name": "isApprovedForAll",
      "outputs": [
        {
          "internalType": "bool",
          "name": "",
          "type": "bool"
        }
      ],
      "stateMutability": "view",
      "type": "function"
    },
    {
      "inputs": [],
      "name": "maxMint",
      "outputs": [
        {
          "internalType": "uint256",
          "name": "",
          "type": "uint256"
        }
      ],
      "stateMutability": "view",
      "type": "function"
    },
    {
      "inputs": [
        {
          "internalType": "uint256",
          "name": "numberOfTokens",
          "type": "uint256"
        },
        {
          "internalType": "address",
          "name": "recipient",
          "type": "address"
        },
        {
          "internalType": "string",
          "name": "tokenUri",
          "type": "string"
        }
      ],
      "name": "mint",
      "outputs": [
        {
          "internalType": "uint256",
          "name": "",
          "type": "uint256"
        }
      ],
      "stateMutability": "payable",
      "type": "function"
    },
    {
      "inputs": [],
      "name": "mintPrice",
      "outputs": [
        {
          "internalType": "uint256",
          "name": "",
          "type": "uint256"
        }
      ],
      "stateMutability": "view",
      "type": "function"
    },
    {
      "inputs": [],
      "name": "name",
      "outputs": [
        {
          "internalType": "string",
          "name": "",
          "type": "string"
        }
      ],
      "stateMutability": "view",
      "type": "function"
    },
    {
      "inputs": [
        {
          "internalType": "uint256",
          "name": "tokenId",
          "type": "uint256"
        }
      ],
      "name": "ownerOf",
      "outputs": [
        {
          "internalType": "address",
          "name": "",
          "type": "address"
        }
      ],
      "stateMutability": "view",
      "type": "function"
    },
    {
      "inputs": [],
      "name": "presaleIsActive",
      "outputs": [
        {
          "internalType": "bool",
          "name": "",
          "type": "bool"
        }
      ],
      "stateMutability": "view",
      "type": "function"
    },
    {
      "inputs": [
        {
          "internalType": "address",
          "name": "from",
          "type": "address"
        },
        {
          "internalType": "address",
          "name": "to",
          "type": "address"
        },
        {
          "internalType": "uint256",
          "name": "tokenId",
          "type": "uint256"
        }
      ],
      "name": "safeTransferFrom",
      "outputs": [],
      "stateMutability": "nonpayable",
      "type": "function"
    },
    {
      "inputs": [
        {
          "internalType": "address",
          "name": "from",
          "type": "address"
        },
        {
          "internalType": "address",
          "name": "to",
          "type": "address"
        },
        {
          "internalType": "uint256",
          "name": "tokenId",
          "type": "uint256"
        },
        {
          "internalType": "bytes",
          "name": "_data",
          "type": "bytes"
        }
      ],
      "name": "safeTransferFrom",
      "outputs": [],
      "stateMutability": "nonpayable",
      "type": "function"
    },
    {
      "inputs": [],
      "name": "saleIsActive",
      "outputs": [
        {
          "internalType": "bool",
          "name": "",
          "type": "bool"
        }
      ],
      "stateMutability": "view",
      "type": "function"
    },
    {
      "inputs": [
        {
          "internalType": "address",
          "name": "operator",
          "type": "address"
        },
        {
          "internalType": "bool",
          "name": "approved",
          "type": "bool"
        }
      ],
      "name": "setApprovalForAll",
      "outputs": [],
      "stateMutability": "nonpayable",
      "type": "function"
    },
    {
      "inputs": [
        {
          "internalType": "bytes4",
          "name": "interfaceId",
          "type": "bytes4"
        }
      ],
      "name": "supportsInterface",
      "outputs": [
        {
          "internalType": "bool",
          "name": "",
          "type": "bool"
        }
      ],
      "stateMutability": "view",
      "type": "function"
    },
    {
      "inputs": [],
      "name": "symbol",
      "outputs": [
        {
          "internalType": "string",
          "name": "",
          "type": "string"
        }
      ],
      "stateMutability": "view",
      "type": "function"
    },
    {
      "inputs": [],
      "name": "togglePresaleState",
      "outputs": [],
      "stateMutability": "nonpayable",
      "type": "function"
    },
    {
      "inputs": [],
      "name": "toggleSaleState",
      "outputs": [],
      "stateMutability": "nonpayable",
      "type": "function"
    },
    {
      "inputs": [
        {
          "internalType": "uint256",
          "name": "index",
          "type": "uint256"
        }
      ],
      "name": "tokenByIndex",
      "outputs": [
        {
          "internalType": "uint256",
          "name": "",
          "type": "uint256"
        }
      ],
      "stateMutability": "view",
      "type": "function"
    },
    {
      "inputs": [
        {
          "internalType": "address",
          "name": "owner",
          "type": "address"
        },
        {
          "internalType": "uint256",
          "name": "index",
          "type": "uint256"
        }
      ],
      "name": "tokenOfOwnerByIndex",
      "outputs": [
        {
          "internalType": "uint256",
          "name": "",
          "type": "uint256"
        }
      ],
      "stateMutability": "view",
      "type": "function"
    },
    {
      "inputs": [
        {
          "internalType": "uint256",
          "name": "tokenId",
          "type": "uint256"
        }
      ],
      "name": "tokenURI",
      "outputs": [
        {
          "internalType": "string",
          "name": "",
          "type": "string"
        }
      ],
      "stateMutability": "view",
      "type": "function"
    },
    {
      "inputs": [
        {
          "internalType": "uint256",
          "name": "",
          "type": "uint256"
        }
      ],
      "name": "tokenURIsMinted",
      "outputs": [
        {
          "internalType": "string",
          "name": "",
          "type": "string"
        }
      ],
      "stateMutability": "view",
      "type": "function"
    },
    {
      "inputs": [],
      "name": "totalSupply",
      "outputs": [
        {
          "internalType": "uint256",
          "name": "",
          "type": "uint256"
        }
      ],
      "stateMutability": "view",
      "type": "function"
    },
    {
      "inputs": [
        {
          "internalType": "address",
          "name": "from",
          "type": "address"
        },
        {
          "internalType": "address",
          "name": "to",
          "type": "address"
        },
        {
          "internalType": "uint256",
          "name": "tokenId",
          "type": "uint256"
        }
      ],
      "name": "transferFrom",
      "outputs": [],
      "stateMutability": "nonpayable",
      "type": "function"
    },
    {
      "inputs": [
        {
          "internalType": "address payable",
          "name": "_to",
          "type": "address"
        }
      ],
      "name": "withdrawMoneyTo",
      "outputs": [],
      "stateMutability": "nonpayable",
      "type": "function"
    }
  ],
  "bytecode": "0x608060405273be8d4707b4d9b7a87de9bac74a9fa583ca04bfc1600a60006101000a81548173ffffffffffffffffffffffffffffffffffffffff021916908373ffffffffffffffffffffffffffffffffffffffff160217905550600a600e556001600f60006101000a81548160ff0219169083151502179055506001600f60016101000a81548160ff021916908315150217905550348015620000a157600080fd5b506040518060400160405280600a81526020017f446f674e667444656d6f000000000000000000000000000000000000000000008152506040518060400160405280600681526020017f444f474e46540000000000000000000000000000000000000000000000000000815250620001266301ffc9a760e01b620001d260201b60201c565b81600690805190602001906200013e929190620002f7565b50806007908051906020019062000157929190620002f7565b50620001706380ac58cd60e01b620001d260201b60201c565b62000188635b5e139f60e01b620001d260201b60201c565b620001a063780e9d6360e01b620001d260201b60201c565b5050620001cc60405180608001604052806051815260200162003b2560519139620002db60201b60201c565b6200039d565b63ffffffff60e01b817bffffffffffffffffffffffffffffffffffffffffffffffffffffffff191614156200026f576040517f08c379a000000000000000000000000000000000000000000000000000000000815260040180806020018281038252601c8152602001807f4552433136353a20696e76616c696420696e746572666163652069640000000081525060200191505060405180910390fd5b6001600080837bffffffffffffffffffffffffffffffffffffffffffffffffffffffff19167bffffffffffffffffffffffffffffffffffffffffffffffffffffffff1916815260200190815260200160002060006101000a81548160ff02191690831515021790555050565b8060099080519060200190620002f3929190620002f7565b5050565b828054600181600116156101000203166002900490600052602060002090601f016020900481019282601f106200033a57805160ff19168380011785556200036b565b828001600101855582156200036b579182015b828111156200036a5782518255916020019190600101906200034d565b5b5090506200037a91906200037e565b5090565b5b80821115620003995760008160009055506001016200037f565b5090565b61377880620003ad6000396000f3fe6080604052600436106101b75760003560e01c80636c0360eb116100ec578063c87b56dd1161008a578063e985e9c511610064578063e985e9c514610c2b578063eb8d244414610cb2578063f285e69e14610cdf578063f47c84c514610cf6576101b7565b8063c87b56dd14610a67578063daaeec8614610b1b578063e67e402c14610b32576101b7565b80637f247dd5116100c65780637f247dd5146107b457806395d89b4114610868578063a22cb465146108f8578063b88d4fde14610955576101b7565b80636c0360eb1461069457806370a08231146107245780637501f74114610789576101b7565b806323b872dd1161015957806342842e0e1161013357806342842e0e1461053a5780634f6ccce7146105b55780636352211e146106045780636817c76c14610669576101b7565b806323b872dd146104235780632f745c591461049e57806330f72cd41461050d576101b7565b8063095ea7b311610195578063095ea7b3146103215780630ff8d8a51461037c57806312065fe0146103cd57806318160ddd146103f8576101b7565b806301ffc9a7146101bc57806306fdde031461022c578063081812fc146102bc575b600080fd5b3480156101c857600080fd5b50610214600480360360208110156101df57600080fd5b8101908080357bffffffffffffffffffffffffffffffffffffffffffffffffffffffff19169060200190929190505050610d21565b60405180821515815260200191505060405180910390f35b34801561023857600080fd5b50610241610d88565b6040518080602001828103825283818151815260200191508051906020019080838360005b83811015610281578082015181840152602081019050610266565b50505050905090810190601f1680156102ae5780820380516001836020036101000a031916815260200191505b509250505060405180910390f35b3480156102c857600080fd5b506102f5600480360360208110156102df57600080fd5b8101908080359060200190929190505050610e2a565b604051808273ffffffffffffffffffffffffffffffffffffffff16815260200191505060405180910390f35b34801561032d57600080fd5b5061037a6004803603604081101561034457600080fd5b81019080803573ffffffffffffffffffffffffffffffffffffffff16906020019092919080359060200190929190505050610ec5565b005b34801561038857600080fd5b506103cb6004803603602081101561039f57600080fd5b81019080803573ffffffffffffffffffffffffffffffffffffffff169060200190929190505050611009565b005b3480156103d957600080fd5b506103e261105a565b6040518082815260200191505060405180910390f35b34801561040457600080fd5b5061040d611062565b6040518082815260200191505060405180910390f35b34801561042f57600080fd5b5061049c6004803603606081101561044657600080fd5b81019080803573ffffffffffffffffffffffffffffffffffffffff169060200190929190803573ffffffffffffffffffffffffffffffffffffffff16906020019092919080359060200190929190505050611073565b005b3480156104aa57600080fd5b506104f7600480360360408110156104c157600080fd5b81019080803573ffffffffffffffffffffffffffffffffffffffff169060200190929190803590602001909291905050506110e9565b6040518082815260200191505060405180910390f35b34801561051957600080fd5b50610522611144565b60405180821515815260200191505060405180910390f35b34801561054657600080fd5b506105b36004803603606081101561055d57600080fd5b81019080803573ffffffffffffffffffffffffffffffffffffffff169060200190929190803573ffffffffffffffffffffffffffffffffffffffff16906020019092919080359060200190929190505050611157565b005b3480156105c157600080fd5b506105ee600480360360208110156105d857600080fd5b8101908080359060200190929190505050611177565b6040518082815260200191505060405180910390f35b34801561061057600080fd5b5061063d6004803603602081101561062757600080fd5b810190808035906020019092919050505061119a565b604051808273ffffffffffffffffffffffffffffffffffffffff16815260200191505060405180910390f35b34801561067557600080fd5b5061067e6111d1565b6040518082815260200191505060405180910390f35b3480156106a057600080fd5b506106a96111dc565b6040518080602001828103825283818151815260200191508051906020019080838360005b838110156106e95780820151818401526020810190506106ce565b50505050905090810190601f1680156107165780820380516001836020036101000a031916815260200191505b509250505060405180910390f35b34801561073057600080fd5b506107736004803603602081101561074757600080fd5b81019080803573ffffffffffffffffffffffffffffffffffffffff16906020019092919050505061127e565b6040518082815260200191505060405180910390f35b34801561079557600080fd5b5061079e611353565b6040518082815260200191505060405180910390f35b3480156107c057600080fd5b506107ed600480360360208110156107d757600080fd5b8101908080359060200190929190505050611358565b6040518080602001828103825283818151815260200191508051906020019080838360005b8381101561082d578082015181840152602081019050610812565b50505050905090810190601f16801561085a5780820380516001836020036101000a031916815260200191505b509250505060405180910390f35b34801561087457600080fd5b5061087d611411565b6040518080602001828103825283818151815260200191508051906020019080838360005b838110156108bd5780820151818401526020810190506108a2565b50505050905090810190601f1680156108ea5780820380516001836020036101000a031916815260200191505b509250505060405180910390f35b34801561090457600080fd5b506109536004803603604081101561091b57600080fd5b81019080803573ffffffffffffffffffffffffffffffffffffffff1690602001909291908035151590602001909291905050506114b3565b005b34801561096157600080fd5b50610a656004803603608081101561097857600080fd5b81019080803573ffffffffffffffffffffffffffffffffffffffff169060200190929190803573ffffffffffffffffffffffffffffffffffffffff16906020019092919080359060200190929190803590602001906401000000008111156109df57600080fd5b8201836020820111156109f157600080fd5b80359060200191846001830284011164010000000083111715610a1357600080fd5b91908080601f016020809104026020016040519081016040528093929190818152602001838380828437600081840152601f19601f820116905080830192505050505050509192919290505050611669565b005b348015610a7357600080fd5b50610aa060048036036020811015610a8a57600080fd5b81019080803590602001909291905050506116e1565b6040518080602001828103825283818151815260200191508051906020019080838360005b83811015610ae0578082015181840152602081019050610ac5565b50505050905090810190601f168015610b0d5780820380516001836020036101000a031916815260200191505b509250505060405180910390f35b348015610b2757600080fd5b50610b306119ca565b005b610c1560048036036060811015610b4857600080fd5b8101908080359060200190929190803573ffffffffffffffffffffffffffffffffffffffff16906020019092919080359060200190640100000000811115610b8f57600080fd5b820183602082011115610ba157600080fd5b80359060200191846001830284011164010000000083111715610bc357600080fd5b91908080601f016020809104026020016040519081016040528093929190818152602001838380828437600081840152601f19601f8201169050808301925050505050505091929192905050506119f6565b6040518082815260200191505060405180910390f35b348015610c3757600080fd5b50610c9a60048036036040811015610c4e57600080fd5b81019080803573ffffffffffffffffffffffffffffffffffffffff169060200190929190803573ffffffffffffffffffffffffffffffffffffffff169060200190929190505050611f2d565b60405180821515815260200191505060405180910390f35b348015610cbe57600080fd5b50610cc7611fc1565b60405180821515815260200191505060405180910390f35b348015610ceb57600080fd5b50610cf4611fd4565b005b348015610d0257600080fd5b50610d0b612000565b6040518082815260200191505060405180910390f35b6000806000837bffffffffffffffffffffffffffffffffffffffffffffffffffffffff19167bffffffffffffffffffffffffffffffffffffffffffffffffffffffff1916815260200190815260200160002060009054906101000a900460ff169050919050565b606060068054600181600116156101000203166002900480601f016020809104026020016040519081016040528092919081815260200182805460018160011615610100020316600290048015610e205780601f10610df557610100808354040283529160200191610e20565b820191906000526020600020905b815481529060010190602001808311610e0357829003601f168201915b5050505050905090565b6000610e3582612006565b610e8a576040517f08c379a000000000000000000000000000000000000000000000000000000000815260040180806020018281038252602c815260200180613641602c913960400191505060405180910390fd5b6004600083815260200190815260200160002060009054906101000a900473ffffffffffffffffffffffffffffffffffffffff169050919050565b6000610ed08261119a565b90508073ffffffffffffffffffffffffffffffffffffffff168373ffffffffffffffffffffffffffffffffffffffff161415610f57576040517f08c379a00000000000000000000000000000000000000000000000000000000081526004018080602001828103825260218152602001806136f16021913960400191505060405180910390fd5b8073ffffffffffffffffffffffffffffffffffffffff16610f76612023565b73ffffffffffffffffffffffffffffffffffffffff161480610fa55750610fa481610f9f612023565b611f2d565b5b610ffa576040517f08c379a00000000000000000000000000000000000000000000000000000000081526004018080602001828103825260388152602001806135526038913960400191505060405180910390fd5b611004838361202b565b505050565b8073ffffffffffffffffffffffffffffffffffffffff166108fc61102b61105a565b9081150290604051600060405180830381858888f19350505050158015611056573d6000803e3d6000fd5b5050565b600047905090565b600061106e60026120e4565b905090565b61108461107e612023565b826120f9565b6110d9576040517f08c379a00000000000000000000000000000000000000000000000000000000081526004018080602001828103825260318152602001806137126031913960400191505060405180910390fd5b6110e48383836121ed565b505050565b600061113c82600160008673ffffffffffffffffffffffffffffffffffffffff1673ffffffffffffffffffffffffffffffffffffffff16815260200190815260200160002061243090919063ffffffff16565b905092915050565b600f60019054906101000a900460ff1681565b61117283838360405180602001604052806000815250611669565b505050565b60008061118e83600261244a90919063ffffffff16565b50905080915050919050565b60006111ca826040518060600160405280602981526020016135b46029913960026124769092919063ffffffff16565b9050919050565b666a94d74f43000081565b606060098054600181600116156101000203166002900480601f0160208091040260200160405190810160405280929190818152602001828054600181600116156101000203166002900480156112745780601f1061124957610100808354040283529160200191611274565b820191906000526020600020905b81548152906001019060200180831161125757829003601f168201915b5050505050905090565b60008073ffffffffffffffffffffffffffffffffffffffff168273ffffffffffffffffffffffffffffffffffffffff161415611305576040517f08c379a000000000000000000000000000000000000000000000000000000000815260040180806020018281038252602a81526020018061358a602a913960400191505060405180910390fd5b61134c600160008473ffffffffffffffffffffffffffffffffffffffff1673ffffffffffffffffffffffffffffffffffffffff168152602001908152602001600020612495565b9050919050565b600381565b600c818154811061136557fe5b906000526020600020016000915090508054600181600116156101000203166002900480601f0160208091040260200160405190810160405280929190818152602001828054600181600116156101000203166002900480156114095780601f106113de57610100808354040283529160200191611409565b820191906000526020600020905b8154815290600101906020018083116113ec57829003601f168201915b505050505081565b606060078054600181600116156101000203166002900480601f0160208091040260200160405190810160405280929190818152602001828054600181600116156101000203166002900480156114a95780601f1061147e576101008083540402835291602001916114a9565b820191906000526020600020905b81548152906001019060200180831161148c57829003601f168201915b5050505050905090565b6114bb612023565b73ffffffffffffffffffffffffffffffffffffffff168273ffffffffffffffffffffffffffffffffffffffff16141561155c576040517f08c379a00000000000000000000000000000000000000000000000000000000081526004018080602001828103825260198152602001807f4552433732313a20617070726f766520746f2063616c6c65720000000000000081525060200191505060405180910390fd5b8060056000611569612023565b73ffffffffffffffffffffffffffffffffffffffff1673ffffffffffffffffffffffffffffffffffffffff16815260200190815260200160002060008473ffffffffffffffffffffffffffffffffffffffff1673ffffffffffffffffffffffffffffffffffffffff16815260200190815260200160002060006101000a81548160ff0219169083151502179055508173ffffffffffffffffffffffffffffffffffffffff16611616612023565b73ffffffffffffffffffffffffffffffffffffffff167f17307eab39ab6107e8899845ad3d59bd9653f200f220920489ca2b5937696c318360405180821515815260200191505060405180910390a35050565b61167a611674612023565b836120f9565b6116cf576040517f08c379a00000000000000000000000000000000000000000000000000000000081526004018080602001828103825260318152602001806137126031913960400191505060405180910390fd5b6116db848484846124aa565b50505050565b60606116ec82612006565b611741576040517f08c379a000000000000000000000000000000000000000000000000000000000815260040180806020018281038252602f8152602001806136c2602f913960400191505060405180910390fd5b6060600860008481526020019081526020016000208054600181600116156101000203166002900480601f0160208091040260200160405190810160405280929190818152602001828054600181600116156101000203166002900480156117ea5780601f106117bf576101008083540402835291602001916117ea565b820191906000526020600020905b8154815290600101906020018083116117cd57829003601f168201915b5050505050905060006009805460018160011615610100020316600290049050141561181957809150506119c5565b6000815111156118f25760098160405160200180838054600181600116156101000203166002900480156118845780601f10611862576101008083540402835291820191611884565b820191906000526020600020905b815481529060010190602001808311611870575b505082805190602001908083835b602083106118b55780518252602082019150602081019050602083039250611892565b6001836020036101000a038019825116818451168082178552505050505050905001925050506040516020818303038152906040529150506119c5565b60096118fd8461251c565b604051602001808380546001816001161561010002031660029004801561195b5780601f1061193957610100808354040283529182019161195b565b820191906000526020600020905b815481529060010190602001808311611947575b505082805190602001908083835b6020831061198c5780518252602082019150602081019050602083039250611969565b6001836020036101000a038019825116818451168082178552505050505050905001925050506040516020818303038152906040529150505b919050565b600f60009054906101000a900460ff1615600f60006101000a81548160ff021916908315150217905550565b6000600f60009054906101000a900460ff16611a5d576040517f08c379a00000000000000000000000000000000000000000000000000000000081526004018080602001828103825260218152602001806134e16021913960400191505060405180910390fd5b600d826040518082805190602001908083835b60208310611a935780518252602082019150602081019050602083039250611a70565b6001836020036101000a038019825116818451168082178552505050505050905001915050908152602001604051809103902060009054906101000a900460ff1615611b47576040517f08c379a000000000000000000000000000000000000000000000000000000000815260040180806020018281038252601a8152602001807f54686973206e6674206973206d696e74656420616c726561647900000000000081525060200191505060405180910390fd5b6000841415611ba1576040517f08c379a00000000000000000000000000000000000000000000000000000000081526004018080602001828103825260218152602001806135dd6021913960400191505060405180910390fd5b6003841115611bfb576040517f08c379a00000000000000000000000000000000000000000000000000000000081526004018080602001828103825260248152602001806134bd6024913960400191505060405180910390fd5b600e54611c1885611c0a611062565b61266390919063ffffffff16565b1115611c8c576040517f08c379a00000000000000000000000000000000000000000000000000000000081526004018080602001828103825260208152602001807f4d696e74696e6720776f756c6420657863656564206d61782e20737570706c7981525060200191505060405180910390fd5b34611ca785666a94d74f4300006126eb90919063ffffffff16565b1115611d1b576040517f08c379a00000000000000000000000000000000000000000000000000000000081526004018080602001828103825260168152602001807f4e6f7420656e6f7567682045746865722073656e742e0000000000000000000081525060200191505060405180910390fd5b60005b84811015611f25576000611d30611062565b9050600e54811015611f17576000611d48600b612771565b9050611d54868261277f565b611d5e8186612973565b611d68600b6129fd565b600c611d726111dc565b866040516020018083805190602001908083835b60208310611da95780518252602082019150602081019050602083039250611d86565b6001836020036101000a03801982511681845116808217855250505050505090500182805190602001908083835b60208310611dfa5780518252602082019150602081019050602083039250611dd7565b6001836020036101000a03801982511681845116808217855250505050505090500192505050604051602081830303815290604052908060018154018082558091505060019003906000526020600020016000909190919091509080519060200190611e679291906133cb565b506001600d866040518082805190602001908083835b60208310611ea05780518252602082019150602081019050602083039250611e7d565b6001836020036101000a038019825116818451168082178552505050505050905001915050908152602001604051809103902060006101000a81548160ff021916908315150217905550611f15600a60009054906101000a900473ffffffffffffffffffffffffffffffffffffffff16611009565b505b508080600101915050611d1e565b509392505050565b6000600560008473ffffffffffffffffffffffffffffffffffffffff1673ffffffffffffffffffffffffffffffffffffffff16815260200190815260200160002060008373ffffffffffffffffffffffffffffffffffffffff1673ffffffffffffffffffffffffffffffffffffffff16815260200190815260200160002060009054906101000a900460ff16905092915050565b600f60009054906101000a900460ff1681565b600f60019054906101000a900460ff1615600f60016101000a81548160ff021916908315150217905550565b600e5481565b600061201c826002612a1390919063ffffffff16565b9050919050565b600033905090565b816004600083815260200190815260200160002060006101000a81548173ffffffffffffffffffffffffffffffffffffffff021916908373ffffffffffffffffffffffffffffffffffffffff160217905550808273ffffffffffffffffffffffffffffffffffffffff1661209e8361119a565b73ffffffffffffffffffffffffffffffffffffffff167f8c5be1e5ebec7d5bd14f71427d1e84f3dd0314c0f7b2291e5b200ac8c7c3b92560405160405180910390a45050565b60006120f282600001612a2d565b9050919050565b600061210482612006565b612159576040517f08c379a000000000000000000000000000000000000000000000000000000000815260040180806020018281038252602c815260200180613526602c913960400191505060405180910390fd5b60006121648361119a565b90508073ffffffffffffffffffffffffffffffffffffffff168473ffffffffffffffffffffffffffffffffffffffff1614806121d357508373ffffffffffffffffffffffffffffffffffffffff166121bb84610e2a565b73ffffffffffffffffffffffffffffffffffffffff16145b806121e457506121e38185611f2d565b5b91505092915050565b8273ffffffffffffffffffffffffffffffffffffffff1661220d8261119a565b73ffffffffffffffffffffffffffffffffffffffff1614612279576040517f08c379a00000000000000000000000000000000000000000000000000000000081526004018080602001828103825260298152602001806136996029913960400191505060405180910390fd5b600073ffffffffffffffffffffffffffffffffffffffff168273ffffffffffffffffffffffffffffffffffffffff1614156122ff576040517f08c379a00000000000000000000000000000000000000000000000000000000081526004018080602001828103825260248152602001806135026024913960400191505060405180910390fd5b61230a838383612a3e565b61231560008261202b565b61236681600160008673ffffffffffffffffffffffffffffffffffffffff1673ffffffffffffffffffffffffffffffffffffffff168152602001908152602001600020612a4390919063ffffffff16565b506123b881600160008573ffffffffffffffffffffffffffffffffffffffff1673ffffffffffffffffffffffffffffffffffffffff168152602001908152602001600020612a5d90919063ffffffff16565b506123cf81836002612a779092919063ffffffff16565b50808273ffffffffffffffffffffffffffffffffffffffff168473ffffffffffffffffffffffffffffffffffffffff167fddf252ad1be2c89b69c2b068fc378daa952ba7f163c4a11628f55a4df523b3ef60405160405180910390a4505050565b600061243f8360000183612aac565b60001c905092915050565b60008060008061245d8660000186612b2f565b915091508160001c8160001c9350935050509250929050565b6000612489846000018460001b84612bc8565b60001c90509392505050565b60006124a382600001612cbe565b9050919050565b6124b58484846121ed565b6124c184848484612ccf565b612516576040517f08c379a000000000000000000000000000000000000000000000000000000000815260040180806020018281038252603281526020018061348b6032913960400191505060405180910390fd5b50505050565b60606000821415612564576040518060400160405280600181526020017f3000000000000000000000000000000000000000000000000000000000000000815250905061265e565b600082905060005b6000821461258e578080600101915050600a828161258657fe5b04915061256c565b60608167ffffffffffffffff811180156125a757600080fd5b506040519080825280601f01601f1916602001820160405280156125da5781602001600182028036833780820191505090505b50905060006001830390508593505b6000841461265657600a84816125fb57fe5b0660300160f81b8282806001900393508151811061261557fe5b60200101907effffffffffffffffffffffffffffffffffffffffffffffffffffffffffffff1916908160001a905350600a848161264e57fe5b0493506125e9565b819450505050505b919050565b6000808284019050838110156126e1576040517f08c379a000000000000000000000000000000000000000000000000000000000815260040180806020018281038252601b8152602001807f536166654d6174683a206164646974696f6e206f766572666c6f77000000000081525060200191505060405180910390fd5b8091505092915050565b6000808314156126fe576000905061276b565b600082840290508284828161270f57fe5b0414612766576040517f08c379a00000000000000000000000000000000000000000000000000000000081526004018080602001828103825260218152602001806136206021913960400191505060405180910390fd5b809150505b92915050565b600081600001549050919050565b600073ffffffffffffffffffffffffffffffffffffffff168273ffffffffffffffffffffffffffffffffffffffff161415612822576040517f08c379a00000000000000000000000000000000000000000000000000000000081526004018080602001828103825260208152602001807f4552433732313a206d696e7420746f20746865207a65726f206164647265737381525060200191505060405180910390fd5b61282b81612006565b1561289e576040517f08c379a000000000000000000000000000000000000000000000000000000000815260040180806020018281038252601c8152602001807f4552433732313a20746f6b656e20616c7265616479206d696e7465640000000081525060200191505060405180910390fd5b6128aa60008383612a3e565b6128fb81600160008573ffffffffffffffffffffffffffffffffffffffff1673ffffffffffffffffffffffffffffffffffffffff168152602001908152602001600020612a5d90919063ffffffff16565b5061291281836002612a779092919063ffffffff16565b50808273ffffffffffffffffffffffffffffffffffffffff16600073ffffffffffffffffffffffffffffffffffffffff167fddf252ad1be2c89b69c2b068fc378daa952ba7f163c4a11628f55a4df523b3ef60405160405180910390a45050565b61297c82612006565b6129d1576040517f08c379a000000000000000000000000000000000000000000000000000000000815260040180806020018281038252602c81526020018061366d602c913960400191505060405180910390fd5b806008600084815260200190815260200160002090805190602001906129f89291906133cb565b505050565b6001816000016000828254019250508190555050565b6000612a25836000018360001b612ee8565b905092915050565b600081600001805490509050919050565b505050565b6000612a55836000018360001b612f0b565b905092915050565b6000612a6f836000018360001b612ff3565b905092915050565b6000612aa3846000018460001b8473ffffffffffffffffffffffffffffffffffffffff1660001b613063565b90509392505050565b600081836000018054905011612b0d576040517f08c379a00000000000000000000000000000000000000000000000000000000081526004018080602001828103825260228152602001806134696022913960400191505060405180910390fd5b826000018281548110612b1c57fe5b9060005260206000200154905092915050565b60008082846000018054905011612b91576040517f08c379a00000000000000000000000000000000000000000000000000000000081526004018080602001828103825260228152602001806135fe6022913960400191505060405180910390fd5b6000846000018481548110612ba257fe5b906000526020600020906002020190508060000154816001015492509250509250929050565b60008084600101600085815260200190815260200160002054905060008114158390612c8f576040517f08c379a00000000000000000000000000000000000000000000000000000000081526004018080602001828103825283818151815260200191508051906020019080838360005b83811015612c54578082015181840152602081019050612c39565b50505050905090810190601f168015612c815780820380516001836020036101000a031916815260200191505b509250505060405180910390fd5b50846000016001820381548110612ca257fe5b9060005260206000209060020201600101549150509392505050565b600081600001805490509050919050565b6000612cf08473ffffffffffffffffffffffffffffffffffffffff1661313f565b612cfd5760019050612ee0565b6060612e6763150b7a0260e01b612d12612023565b888787604051602401808573ffffffffffffffffffffffffffffffffffffffff1681526020018473ffffffffffffffffffffffffffffffffffffffff16815260200183815260200180602001828103825283818151815260200191508051906020019080838360005b83811015612d96578082015181840152602081019050612d7b565b50505050905090810190601f168015612dc35780820380516001836020036101000a031916815260200191505b5095505050505050604051602081830303815290604052907bffffffffffffffffffffffffffffffffffffffffffffffffffffffff19166020820180517bffffffffffffffffffffffffffffffffffffffffffffffffffffffff838183161783525050505060405180606001604052806032815260200161348b603291398773ffffffffffffffffffffffffffffffffffffffff1661318a9092919063ffffffff16565b90506000818060200190516020811015612e8057600080fd5b8101908080519060200190929190505050905063150b7a0260e01b7bffffffffffffffffffffffffffffffffffffffffffffffffffffffff1916817bffffffffffffffffffffffffffffffffffffffffffffffffffffffff191614925050505b949350505050565b600080836001016000848152602001908152602001600020541415905092915050565b60008083600101600084815260200190815260200160002054905060008114612fe75760006001820390506000600186600001805490500390506000866000018281548110612f5657fe5b9060005260206000200154905080876000018481548110612f7357fe5b9060005260206000200181905550600183018760010160008381526020019081526020016000208190555086600001805480612fab57fe5b60019003818190600052602060002001600090559055866001016000878152602001908152602001600020600090556001945050505050612fed565b60009150505b92915050565b6000612fff83836131a2565b61305857826000018290806001815401808255809150506001900390600052602060002001600090919091909150558260000180549050836001016000848152602001908152602001600020819055506001905061305d565b600090505b92915050565b600080846001016000858152602001908152602001600020549050600081141561310a57846000016040518060400160405280868152602001858152509080600181540180825580915050600190039060005260206000209060020201600090919091909150600082015181600001556020820151816001015550508460000180549050856001016000868152602001908152602001600020819055506001915050613138565b8285600001600183038154811061311d57fe5b90600052602060002090600202016001018190555060009150505b9392505050565b60008060007fc5d2460186f7233c927e7db2dcc703c0e500b653ca82273b7bfad8045d85a47060001b9050833f915080821415801561318157506000801b8214155b92505050919050565b606061319984846000856131c5565b90509392505050565b600080836001016000848152602001908152602001600020541415905092915050565b60606131d08561313f565b613242576040517f08c379a000000000000000000000000000000000000000000000000000000000815260040180806020018281038252601d8152602001807f416464726573733a2063616c6c20746f206e6f6e2d636f6e747261637400000081525060200191505060405180910390fd5b600060608673ffffffffffffffffffffffffffffffffffffffff1685876040518082805190602001908083835b60208310613292578051825260208201915060208101905060208303925061326f565b6001836020036101000a03801982511681845116808217855250505050505090500191505060006040518083038185875af1925050503d80600081146132f4576040519150601f19603f3d011682016040523d82523d6000602084013e6132f9565b606091505b5091509150811561330e5780925050506133c3565b6000815111156133215780518082602001fd5b836040517f08c379a00000000000000000000000000000000000000000000000000000000081526004018080602001828103825283818151815260200191508051906020019080838360005b8381101561338857808201518184015260208101905061336d565b50505050905090810190601f1680156133b55780820380516001836020036101000a031916815260200191505b509250505060405180910390fd5b949350505050565b828054600181600116156101000203166002900490600052602060002090601f016020900481019282601f1061340c57805160ff191683800117855561343a565b8280016001018555821561343a579182015b8281111561343957825182559160200191906001019061341e565b5b509050613447919061344b565b5090565b5b8082111561346457600081600090555060010161344c565b509056fe456e756d657261626c655365743a20696e646578206f7574206f6620626f756e64734552433732313a207472616e7366657220746f206e6f6e20455243373231526563656976657220696d706c656d656e746572596f752063616e206f6e6c79206d696e74203320746f6b656e7320617420612074696d6553616c65206d7573742062652061637469766520746f206d696e7420546f6b656e4552433732313a207472616e7366657220746f20746865207a65726f20616464726573734552433732313a206f70657261746f7220717565727920666f72206e6f6e6578697374656e7420746f6b656e4552433732313a20617070726f76652063616c6c6572206973206e6f74206f776e6572206e6f7220617070726f76656420666f7220616c6c4552433732313a2062616c616e636520717565727920666f7220746865207a65726f20616464726573734552433732313a206f776e657220717565727920666f72206e6f6e6578697374656e7420746f6b656e596f75206e65656420746f206d696e74206174206c65617374203120746f6b656e456e756d657261626c654d61703a20696e646578206f7574206f6620626f756e6473536166654d6174683a206d756c7469706c69636174696f6e206f766572666c6f774552433732313a20617070726f76656420717565727920666f72206e6f6e6578697374656e7420746f6b656e4552433732314d657461646174613a2055524920736574206f66206e6f6e6578697374656e7420746f6b656e4552433732313a207472616e73666572206f6620746f6b656e2074686174206973206e6f74206f776e4552433732314d657461646174613a2055524920717565727920666f72206e6f6e6578697374656e7420746f6b656e4552433732313a20617070726f76616c20746f2063757272656e74206f776e65724552433732313a207472616e736665722063616c6c6572206973206e6f74206f776e6572206e6f7220617070726f766564a2646970667358221220f7b8c4620fb64dee12ecc5dc511746b72280b49bd56ba58e031d6abcc392cb4864736f6c6343000703003368747470733a2f2f676174657761792e70696e6174612e636c6f75642f697066732f516d62556d6767427262425050763138674b614258377865584d38566834714a74336459766e3865576d6a5954482f",
  "linkReferences": {},
  "deployedLinkReferences": {}
}